{
  "contractName": "database",
  "abi": [
    {
      "constant": true,
      "inputs": [
        {
          "name": "",
          "type": "address"
        }
      ],
      "name": "owners",
      "outputs": [
        {
          "name": "",
          "type": "bool"
        }
      ],
      "payable": false,
      "stateMutability": "view",
      "type": "function"
    },
    {
      "constant": true,
      "inputs": [
        {
          "name": "",
          "type": "address"
        }
      ],
      "name": "participants",
      "outputs": [
        {
          "name": "eth_address",
          "type": "address"
        },
        {
          "name": "topl_address",
          "type": "uint256"
        },
        {
          "name": "arbits",
          "type": "uint256"
        },
        {
          "name": "num_of_pro_rata_tokens_alloted",
          "type": "uint256"
        },
        {
          "name": "arbits_kyc_whitelist",
          "type": "bool"
        },
        {
          "name": "num_of_uses",
          "type": "uint8"
        }
      ],
      "payable": false,
      "stateMutability": "view",
      "type": "function"
    },
    {
      "constant": true,
      "inputs": [],
      "name": "contrib_arbits_min",
      "outputs": [
        {
          "name": "",
          "type": "uint256"
        }
      ],
      "payable": false,
      "stateMutability": "view",
      "type": "function"
    },
    {
      "constant": true,
      "inputs": [],
      "name": "pre_kyc_bonus_denominator",
      "outputs": [
        {
          "name": "",
          "type": "uint256"
        }
      ],
      "payable": false,
      "stateMutability": "view",
      "type": "function"
    },
    {
      "constant": true,
      "inputs": [],
      "name": "presale_iconiq_arbits_per_ether",
      "outputs": [
        {
          "name": "",
          "type": "uint256"
        }
      ],
      "payable": false,
      "stateMutability": "view",
      "type": "function"
    },
    {
      "constant": true,
      "inputs": [],
      "name": "presale_arbits_sold",
      "outputs": [
        {
          "name": "",
          "type": "uint256"
        }
      ],
      "payable": false,
      "stateMutability": "view",
      "type": "function"
    },
    {
      "constant": true,
      "inputs": [],
      "name": "sale_arbits_per_ether",
      "outputs": [
        {
          "name": "",
          "type": "uint256"
        }
      ],
      "payable": false,
      "stateMutability": "view",
      "type": "function"
    },
    {
      "constant": true,
      "inputs": [
        {
          "name": "",
          "type": "address"
        }
      ],
      "name": "sale_owners",
      "outputs": [
        {
          "name": "",
          "type": "bool"
        }
      ],
      "payable": false,
      "stateMutability": "view",
      "type": "function"
    },
    {
      "constant": true,
      "inputs": [
        {
          "name": "",
          "type": "address"
        }
      ],
      "name": "kycers",
      "outputs": [
        {
          "name": "",
          "type": "bool"
        }
      ],
      "payable": false,
      "stateMutability": "view",
      "type": "function"
    },
    {
      "constant": true,
      "inputs": [],
      "name": "presale_arbits_per_ether",
      "outputs": [
        {
          "name": "",
          "type": "uint256"
        }
      ],
      "payable": false,
      "stateMutability": "view",
      "type": "function"
    },
    {
      "constant": true,
      "inputs": [
        {
          "name": "",
          "type": "address"
        }
      ],
      "name": "masters",
      "outputs": [
        {
          "name": "",
          "type": "bool"
        }
      ],
      "payable": false,
      "stateMutability": "view",
      "type": "function"
    },
    {
      "constant": true,
      "inputs": [],
      "name": "pre_kyc_iconiq_bonus_denominator",
      "outputs": [
        {
          "name": "",
          "type": "uint256"
        }
      ],
      "payable": false,
      "stateMutability": "view",
      "type": "function"
    },
    {
      "constant": true,
      "inputs": [],
      "name": "pre_kyc_bonus_numerator",
      "outputs": [
        {
          "name": "",
          "type": "uint256"
        }
      ],
      "payable": false,
      "stateMutability": "view",
      "type": "function"
    },
    {
      "constant": true,
      "inputs": [],
      "name": "sale_arbits_sold",
      "outputs": [
        {
          "name": "",
          "type": "uint256"
        }
      ],
      "payable": false,
      "stateMutability": "view",
      "type": "function"
    },
    {
      "constant": true,
      "inputs": [],
      "name": "sale_arbits_total",
      "outputs": [
        {
          "name": "",
          "type": "uint256"
        }
      ],
      "payable": false,
      "stateMutability": "view",
      "type": "function"
    },
    {
      "constant": true,
      "inputs": [
        {
          "name": "",
          "type": "uint256"
        }
      ],
      "name": "participant_keys",
      "outputs": [
        {
          "name": "",
          "type": "address"
        }
      ],
      "payable": false,
      "stateMutability": "view",
      "type": "function"
    },
    {
      "constant": true,
      "inputs": [],
      "name": "pre_kyc_iconiq_bonus_numerator",
      "outputs": [
        {
          "name": "",
          "type": "uint256"
        }
      ],
      "payable": false,
      "stateMutability": "view",
      "type": "function"
    },
    {
      "constant": true,
      "inputs": [],
      "name": "iconiq_presale_open",
      "outputs": [
        {
          "name": "",
          "type": "bool"
        }
      ],
      "payable": false,
      "stateMutability": "view",
      "type": "function"
    },
    {
      "constant": true,
      "inputs": [],
      "name": "contrib_arbits_max",
      "outputs": [
        {
          "name": "",
          "type": "uint256"
        }
      ],
      "payable": false,
      "stateMutability": "view",
      "type": "function"
    },
    {
      "constant": true,
      "inputs": [],
      "name": "arbits_presale_open",
      "outputs": [
        {
          "name": "",
          "type": "bool"
        }
      ],
      "payable": false,
      "stateMutability": "view",
      "type": "function"
    },
    {
      "constant": true,
      "inputs": [],
      "name": "arbits_sale_open",
      "outputs": [
        {
          "name": "",
          "type": "bool"
        }
      ],
      "payable": false,
      "stateMutability": "view",
      "type": "function"
    },
    {
      "constant": true,
      "inputs": [],
      "name": "presale_arbits_total",
      "outputs": [
        {
          "name": "",
          "type": "uint256"
        }
      ],
      "payable": false,
      "stateMutability": "view",
      "type": "function"
    },
    {
      "inputs": [],
      "payable": false,
      "stateMutability": "nonpayable",
      "type": "constructor"
    },
    {
      "constant": false,
      "inputs": [
        {
          "name": "__subject",
          "type": "address"
        }
      ],
      "name": "add_owner",
      "outputs": [],
      "payable": false,
      "stateMutability": "nonpayable",
      "type": "function"
    },
    {
      "constant": false,
      "inputs": [
        {
          "name": "__subject",
          "type": "address"
        }
      ],
      "name": "remove_owner",
      "outputs": [],
      "payable": false,
      "stateMutability": "nonpayable",
      "type": "function"
    },
    {
      "constant": false,
      "inputs": [
        {
          "name": "_subject",
          "type": "address"
        }
      ],
      "name": "add_master",
      "outputs": [],
      "payable": false,
      "stateMutability": "nonpayable",
      "type": "function"
    },
    {
      "constant": false,
      "inputs": [
        {
          "name": "_subject",
          "type": "address"
        }
      ],
      "name": "remove_master",
      "outputs": [],
      "payable": false,
      "stateMutability": "nonpayable",
      "type": "function"
    },
    {
      "constant": false,
      "inputs": [
        {
          "name": "_subject",
          "type": "address"
        }
      ],
      "name": "add_kycer",
      "outputs": [],
      "payable": false,
      "stateMutability": "nonpayable",
      "type": "function"
    },
    {
      "constant": false,
      "inputs": [
        {
          "name": "_subject",
          "type": "address"
        }
      ],
      "name": "remove_kycer",
      "outputs": [],
      "payable": false,
      "stateMutability": "nonpayable",
      "type": "function"
    },
    {
      "constant": true,
      "inputs": [
        {
          "name": "_a",
          "type": "address"
        }
      ],
      "name": "get_sale_owner",
      "outputs": [
        {
          "name": "",
          "type": "bool"
        }
      ],
      "payable": false,
      "stateMutability": "view",
      "type": "function"
    },
    {
      "constant": true,
      "inputs": [],
      "name": "get_contrib_arbits_min",
      "outputs": [
        {
          "name": "",
          "type": "uint256"
        }
      ],
      "payable": false,
      "stateMutability": "view",
      "type": "function"
    },
    {
      "constant": true,
      "inputs": [],
      "name": "get_contrib_arbits_max",
      "outputs": [
        {
          "name": "",
          "type": "uint256"
        }
      ],
      "payable": false,
      "stateMutability": "view",
      "type": "function"
    },
    {
      "constant": true,
      "inputs": [],
      "name": "get_pre_kyc_bonus_numerator",
      "outputs": [
        {
          "name": "",
          "type": "uint256"
        }
      ],
      "payable": false,
      "stateMutability": "view",
      "type": "function"
    },
    {
      "constant": true,
      "inputs": [],
      "name": "get_pre_kyc_bonus_denominator",
      "outputs": [
        {
          "name": "",
          "type": "uint256"
        }
      ],
      "payable": false,
      "stateMutability": "view",
      "type": "function"
    },
    {
      "constant": true,
      "inputs": [],
      "name": "get_pre_kyc_iconiq_bonus_numerator",
      "outputs": [
        {
          "name": "",
          "type": "uint256"
        }
      ],
      "payable": false,
      "stateMutability": "view",
      "type": "function"
    },
    {
      "constant": true,
      "inputs": [],
      "name": "get_pre_kyc_iconiq_bonus_denominator",
      "outputs": [
        {
          "name": "",
          "type": "uint256"
        }
      ],
      "payable": false,
      "stateMutability": "view",
      "type": "function"
    },
    {
      "constant": true,
      "inputs": [],
      "name": "get_presale_iconiq_arbits_per_ether",
      "outputs": [
        {
          "name": "",
          "type": "uint256"
        }
      ],
      "payable": false,
      "stateMutability": "view",
      "type": "function"
    },
    {
      "constant": true,
      "inputs": [],
      "name": "get_presale_arbits_per_ether",
      "outputs": [
        {
          "name": "",
          "type": "uint256"
        }
      ],
      "payable": false,
      "stateMutability": "view",
      "type": "function"
    },
    {
      "constant": true,
      "inputs": [],
      "name": "get_presale_arbits_total",
      "outputs": [
        {
          "name": "",
          "type": "uint256"
        }
      ],
      "payable": false,
      "stateMutability": "view",
      "type": "function"
    },
    {
      "constant": true,
      "inputs": [],
      "name": "get_presale_arbits_sold",
      "outputs": [
        {
          "name": "",
          "type": "uint256"
        }
      ],
      "payable": false,
      "stateMutability": "view",
      "type": "function"
    },
    {
      "constant": true,
      "inputs": [],
      "name": "get_sale_arbits_per_ether",
      "outputs": [
        {
          "name": "",
          "type": "uint256"
        }
      ],
      "payable": false,
      "stateMutability": "view",
      "type": "function"
    },
    {
      "constant": true,
      "inputs": [],
      "name": "get_sale_arbits_total",
      "outputs": [
        {
          "name": "",
          "type": "uint256"
        }
      ],
      "payable": false,
      "stateMutability": "view",
      "type": "function"
    },
    {
      "constant": true,
      "inputs": [],
      "name": "get_sale_arbits_sold",
      "outputs": [
        {
          "name": "",
          "type": "uint256"
        }
      ],
      "payable": false,
      "stateMutability": "view",
      "type": "function"
    },
    {
      "constant": false,
      "inputs": [
        {
          "name": "_a",
          "type": "address"
        },
        {
          "name": "_v",
          "type": "bool"
        }
      ],
      "name": "set_sale_owner",
      "outputs": [],
      "payable": false,
      "stateMutability": "nonpayable",
      "type": "function"
    },
    {
      "constant": false,
      "inputs": [
        {
          "name": "_v",
          "type": "uint256"
        }
      ],
      "name": "set_contrib_arbits_min",
      "outputs": [],
      "payable": false,
      "stateMutability": "nonpayable",
      "type": "function"
    },
    {
      "constant": false,
      "inputs": [
        {
          "name": "_v",
          "type": "uint256"
        }
      ],
      "name": "set_contrib_arbits_max",
      "outputs": [],
      "payable": false,
      "stateMutability": "nonpayable",
      "type": "function"
    },
    {
      "constant": false,
      "inputs": [
        {
          "name": "_v",
          "type": "uint256"
        }
      ],
      "name": "set_pre_kyc_bonus_numerator",
      "outputs": [],
      "payable": false,
      "stateMutability": "nonpayable",
      "type": "function"
    },
    {
      "constant": false,
      "inputs": [
        {
          "name": "_v",
          "type": "uint256"
        }
      ],
      "name": "set_pre_kyc_bonus_denominator",
      "outputs": [],
      "payable": false,
      "stateMutability": "nonpayable",
      "type": "function"
    },
    {
      "constant": false,
      "inputs": [
        {
          "name": "_v",
          "type": "uint256"
        }
      ],
      "name": "set_pre_kyc_iconiq_bonus_numerator",
      "outputs": [],
      "payable": false,
      "stateMutability": "nonpayable",
      "type": "function"
    },
    {
      "constant": false,
      "inputs": [
        {
          "name": "_v",
          "type": "uint256"
        }
      ],
      "name": "set_pre_kyc_iconiq_bonus_denominator",
      "outputs": [],
      "payable": false,
      "stateMutability": "nonpayable",
      "type": "function"
    },
    {
      "constant": false,
      "inputs": [
        {
          "name": "_v",
          "type": "uint256"
        }
      ],
      "name": "set_presale_iconiq_arbits_per_ether",
      "outputs": [],
      "payable": false,
      "stateMutability": "nonpayable",
      "type": "function"
    },
    {
      "constant": false,
      "inputs": [
        {
          "name": "_v",
          "type": "uint256"
        }
      ],
      "name": "set_presale_arbits_per_ether",
      "outputs": [],
      "payable": false,
      "stateMutability": "nonpayable",
      "type": "function"
    },
    {
      "constant": false,
      "inputs": [
        {
          "name": "_v",
          "type": "uint256"
        }
      ],
      "name": "set_presale_arbits_total",
      "outputs": [],
      "payable": false,
      "stateMutability": "nonpayable",
      "type": "function"
    },
    {
      "constant": false,
      "inputs": [
        {
          "name": "_v",
          "type": "uint256"
        }
      ],
      "name": "set_presale_arbits_sold",
      "outputs": [],
      "payable": false,
      "stateMutability": "nonpayable",
      "type": "function"
    },
    {
      "constant": false,
      "inputs": [
        {
          "name": "_v",
          "type": "uint256"
        }
      ],
      "name": "set_sale_arbits_per_ether",
      "outputs": [],
      "payable": false,
      "stateMutability": "nonpayable",
      "type": "function"
    },
    {
      "constant": false,
      "inputs": [
        {
          "name": "_v",
          "type": "uint256"
        }
      ],
      "name": "set_sale_arbits_total",
      "outputs": [],
      "payable": false,
      "stateMutability": "nonpayable",
      "type": "function"
    },
    {
      "constant": false,
      "inputs": [
        {
          "name": "_v",
          "type": "uint256"
        }
      ],
      "name": "set_sale_arbits_sold",
      "outputs": [],
      "payable": false,
      "stateMutability": "nonpayable",
      "type": "function"
    },
    {
      "constant": true,
      "inputs": [
        {
          "name": "_a",
          "type": "address"
        }
      ],
      "name": "get_participant",
      "outputs": [
        {
          "name": "",
          "type": "address"
        },
        {
          "name": "",
          "type": "uint256"
        },
        {
          "name": "",
          "type": "uint256"
        },
        {
          "name": "",
          "type": "uint256"
        },
        {
          "name": "",
          "type": "bool"
        },
        {
          "name": "",
          "type": "uint8"
        }
      ],
      "payable": false,
      "stateMutability": "view",
      "type": "function"
    },
    {
      "constant": true,
      "inputs": [
        {
          "name": "_a",
          "type": "address"
        }
      ],
      "name": "get_participant_num_of_uses",
      "outputs": [
        {
          "name": "",
          "type": "uint8"
        }
      ],
      "payable": false,
      "stateMutability": "view",
      "type": "function"
    },
    {
      "constant": true,
      "inputs": [
        {
          "name": "_a",
          "type": "address"
        }
      ],
      "name": "get_participant_topl_address",
      "outputs": [
        {
          "name": "",
          "type": "uint256"
        }
      ],
      "payable": false,
      "stateMutability": "view",
      "type": "function"
    },
    {
      "constant": true,
      "inputs": [
        {
          "name": "_a",
          "type": "address"
        }
      ],
      "name": "get_participant_arbits",
      "outputs": [
        {
          "name": "",
          "type": "uint256"
        }
      ],
      "payable": false,
      "stateMutability": "view",
      "type": "function"
    },
    {
      "constant": true,
      "inputs": [
        {
          "name": "_a",
          "type": "address"
        }
      ],
      "name": "get_participant_num_of_pro_rata_tokens_alloted",
      "outputs": [
        {
          "name": "",
          "type": "uint256"
        }
      ],
      "payable": false,
      "stateMutability": "view",
      "type": "function"
    },
    {
      "constant": true,
      "inputs": [
        {
          "name": "_a",
          "type": "address"
        }
      ],
      "name": "get_participant_arbits_kyc_whitelist",
      "outputs": [
        {
          "name": "",
          "type": "bool"
        }
      ],
      "payable": false,
      "stateMutability": "view",
      "type": "function"
    },
    {
      "constant": false,
      "inputs": [
        {
          "name": "_a",
          "type": "address"
        },
        {
          "name": "_ta",
          "type": "uint256"
        },
        {
          "name": "_arbits",
          "type": "uint256"
        },
        {
          "name": "_prta",
          "type": "uint256"
        },
        {
          "name": "_v3",
          "type": "bool"
        },
        {
          "name": "_nou",
          "type": "uint8"
        }
      ],
      "name": "set_participant",
      "outputs": [],
      "payable": false,
      "stateMutability": "nonpayable",
      "type": "function"
    },
    {
      "constant": false,
      "inputs": [
        {
          "name": "_a",
          "type": "address"
        },
        {
          "name": "_v",
          "type": "uint8"
        }
      ],
      "name": "set_participant_num_of_uses",
      "outputs": [],
      "payable": false,
      "stateMutability": "nonpayable",
      "type": "function"
    },
    {
      "constant": false,
      "inputs": [
        {
          "name": "_a",
          "type": "address"
        },
        {
          "name": "_ta",
          "type": "uint256"
        }
      ],
      "name": "set_participant_topl_address",
      "outputs": [],
      "payable": false,
      "stateMutability": "nonpayable",
      "type": "function"
    },
    {
      "constant": false,
      "inputs": [
        {
          "name": "_a",
          "type": "address"
        },
        {
          "name": "_v",
          "type": "uint256"
        }
      ],
      "name": "set_participant_arbits",
      "outputs": [],
      "payable": false,
      "stateMutability": "nonpayable",
      "type": "function"
    },
    {
      "constant": false,
      "inputs": [
        {
          "name": "_a",
          "type": "address"
        },
        {
          "name": "_v",
          "type": "uint256"
        }
      ],
      "name": "set_participant_num_of_pro_rata_tokens_alloted",
      "outputs": [],
      "payable": false,
      "stateMutability": "nonpayable",
      "type": "function"
    },
    {
      "constant": false,
      "inputs": [
        {
          "name": "_a",
          "type": "address"
        },
        {
          "name": "_v",
          "type": "bool"
        }
      ],
      "name": "set_participant_arbits_kyc_whitelist",
      "outputs": [],
      "payable": false,
      "stateMutability": "nonpayable",
      "type": "function"
    },
    {
      "constant": true,
      "inputs": [],
      "name": "get_iconiq_presale_open",
      "outputs": [
        {
          "name": "",
          "type": "bool"
        }
      ],
      "payable": false,
      "stateMutability": "view",
      "type": "function"
    },
    {
      "constant": true,
      "inputs": [],
      "name": "get_arbits_presale_open",
      "outputs": [
        {
          "name": "",
          "type": "bool"
        }
      ],
      "payable": false,
      "stateMutability": "view",
      "type": "function"
    },
    {
      "constant": true,
      "inputs": [],
      "name": "get_arbits_sale_open",
      "outputs": [
        {
          "name": "",
          "type": "bool"
        }
      ],
      "payable": false,
      "stateMutability": "view",
      "type": "function"
    },
    {
      "constant": false,
      "inputs": [
        {
          "name": "_v",
          "type": "bool"
        }
      ],
      "name": "set_iconiq_presale_open",
      "outputs": [],
      "payable": false,
      "stateMutability": "nonpayable",
      "type": "function"
    },
    {
      "constant": false,
      "inputs": [
        {
          "name": "_v",
          "type": "bool"
        }
      ],
      "name": "set_arbits_presale_open",
      "outputs": [],
      "payable": false,
      "stateMutability": "nonpayable",
      "type": "function"
    },
    {
      "constant": false,
      "inputs": [
        {
          "name": "_v",
          "type": "bool"
        }
      ],
      "name": "set_arbits_sale_open",
      "outputs": [],
      "payable": false,
      "stateMutability": "nonpayable",
      "type": "function"
    }
  ],
  "bytecode": "0x60806040526000600660006101000a81548160ff0219169083151502179055506000600660016101000a81548160ff0219169083151502179055506000600660026101000a81548160ff021916908315150217905550630112a880600f5534801561006957600080fd5b5060018060003373ffffffffffffffffffffffffffffffffffffffff1673ffffffffffffffffffffffffffffffffffffffff16815260200190815260200160002060006101000a81548160ff0219169083151502179055506135b5806100d06000396000f300608060405260043610610364576000357c0100000000000000000000000000000000000000000000000000000000900463ffffffff168063022914a71461036957806303741040146103c4578063037d4ff8146103ef57806306bced7c1461041a578063083baf1514610447578063084b8f8d1461049e57806309e69ede146104cb5780630b967fd21461057b57806310f5f1b3146105be5780631e62a9151461061957806320c0711d1461066657806321ee64571461069157806322efee2d146106be578063249aa1d014610715578063314ec2e514610740578063349be96c1461078f578063380380bb146107ba5780633fc5b69b146107e557806342f1729814610812578063431f188c1461083d5780634a75e7411461086a5780634f8ffd1f146108ad57806359a83074146108da5780635ac38c4f146109275780635de929c8146109825780635e393973146109dd5780635f4b125b14610a0857806361c9559b14610a3357806364968f5814610a62578063681b331414610a8f5780636fcaea0c14610aba57806371c1dde514610ae957806373a29b5e14610b145780637632ee9514610b3f5780637a38a10614610b6a5780637d1f561b14610bc5578063898ad5ec14610bf257806389ce285814610c215780638d0522c514610c4c5780638e79dc9114610c7957806393db771614610cc6578063963c112114610cf157806399a7e9db14610d1e5780639a182e9414610d495780639b4778e414610d745780639d8dbd2014610da3578063a11e7f5e14610de6578063a1eadb8614610e15578063a2248be014610e40578063a5670c8014610e6d578063a62e938e14610e98578063ac798def14610ec3578063ad549e5314610ef0578063b08af3dd14610f3f578063b22e6fee14610f9c578063b4a357a214610fc7578063b50f283214611077578063b996c248146110c7578063baf1129014611134578063bbe617301461115f578063bdcc34391461118a578063c3232dda146111cd578063cc00ce12146111fc578063ceab09d81461122b578063cf0cc31f146112a5578063d7ed3fb1146112d0578063de82d83e14611327578063e14be66614611356578063e1f4a9b114611385578063f105c981146113b2578063f28e59c9146113dd578063f5711d4e14611438578063f6b9571a14611463578063fe7e187f146114a6575b600080fd5b34801561037557600080fd5b506103aa600480360381019080803573ffffffffffffffffffffffffffffffffffffffff1690602001909291905050506114e9565b604051808215151515815260200191505060405180910390f35b3480156103d057600080fd5b506103d9611509565b6040518082815260200191505060405180910390f35b3480156103fb57600080fd5b50610404611513565b6040518082815260200191505060405180910390f35b34801561042657600080fd5b506104456004803603810190808035906020019092919050505061151d565b005b34801561045357600080fd5b50610488600480360381019080803573ffffffffffffffffffffffffffffffffffffffff1690602001909291905050506115d3565b6040518082815260200191505060405180910390f35b3480156104aa57600080fd5b506104c96004803603810190808035906020019092919050505061161f565b005b3480156104d757600080fd5b5061050c600480360381019080803573ffffffffffffffffffffffffffffffffffffffff1690602001909291905050506116d5565b604051808773ffffffffffffffffffffffffffffffffffffffff1673ffffffffffffffffffffffffffffffffffffffff168152602001868152602001858152602001848152602001831515151581526020018260ff1660ff168152602001965050505050505060405180910390f35b34801561058757600080fd5b506105bc600480360381019080803573ffffffffffffffffffffffffffffffffffffffff16906020019092919050505061174b565b005b3480156105ca57600080fd5b506105ff600480360381019080803573ffffffffffffffffffffffffffffffffffffffff1690602001909291905050506117fe565b604051808215151515815260200191505060405180910390f35b34801561062557600080fd5b50610664600480360381019080803573ffffffffffffffffffffffffffffffffffffffff16906020019092919080359060200190929190505050611857565b005b34801561067257600080fd5b5061067b6119b6565b6040518082815260200191505060405180910390f35b34801561069d57600080fd5b506106bc600480360381019080803590602001909291905050506119bc565b005b3480156106ca57600080fd5b506106ff600480360381019080803573ffffffffffffffffffffffffffffffffffffffff169060200190929190505050611a72565b6040518082815260200191505060405180910390f35b34801561072157600080fd5b5061072a611abe565b6040518082815260200191505060405180910390f35b34801561074c57600080fd5b5061078d600480360381019080803573ffffffffffffffffffffffffffffffffffffffff169060200190929190803515159060200190929190505050611ac4565b005b34801561079b57600080fd5b506107a4611bca565b6040518082815260200191505060405180910390f35b3480156107c657600080fd5b506107cf611bd0565b6040518082815260200191505060405180910390f35b3480156107f157600080fd5b5061081060048036038101908080359060200190929190505050611bd6565b005b34801561081e57600080fd5b50610827611c8c565b6040518082815260200191505060405180910390f35b34801561084957600080fd5b5061086860048036038101908080359060200190929190505050611c92565b005b34801561087657600080fd5b506108ab600480360381019080803573ffffffffffffffffffffffffffffffffffffffff169060200190929190505050611d48565b005b3480156108b957600080fd5b506108d860048036038101908080359060200190929190505050611dfa565b005b3480156108e657600080fd5b50610925600480360381019080803573ffffffffffffffffffffffffffffffffffffffff16906020019092919080359060200190929190505050611eb0565b005b34801561093357600080fd5b50610968600480360381019080803573ffffffffffffffffffffffffffffffffffffffff16906020019092919050505061200f565b604051808215151515815260200191505060405180910390f35b34801561098e57600080fd5b506109c3600480360381019080803573ffffffffffffffffffffffffffffffffffffffff16906020019092919050505061202f565b604051808215151515815260200191505060405180910390f35b3480156109e957600080fd5b506109f261204f565b6040518082815260200191505060405180910390f35b348015610a1457600080fd5b50610a1d612059565b6040518082815260200191505060405180910390f35b348015610a3f57600080fd5b50610a48612063565b604051808215151515815260200191505060405180910390f35b348015610a6e57600080fd5b50610a8d60048036038101908080359060200190929190505050612126565b005b348015610a9b57600080fd5b50610aa46121dc565b6040518082815260200191505060405180910390f35b348015610ac657600080fd5b50610ae76004803603810190808035151590602001909291905050506121e6565b005b348015610af557600080fd5b50610afe6122af565b6040518082815260200191505060405180910390f35b348015610b2057600080fd5b50610b296122b9565b6040518082815260200191505060405180910390f35b348015610b4b57600080fd5b50610b546122c3565b6040518082815260200191505060405180910390f35b348015610b7657600080fd5b50610bab600480360381019080803573ffffffffffffffffffffffffffffffffffffffff1690602001909291905050506122c9565b604051808215151515815260200191505060405180910390f35b348015610bd157600080fd5b50610bf0600480360381019080803590602001909291905050506122e9565b005b348015610bfe57600080fd5b50610c1f60048036038101908080351515906020019092919050505061239f565b005b348015610c2d57600080fd5b50610c36612468565b6040518082815260200191505060405180910390f35b348015610c5857600080fd5b50610c776004803603810190808035906020019092919050505061246e565b005b348015610c8557600080fd5b50610cc4600480360381019080803573ffffffffffffffffffffffffffffffffffffffff16906020019092919080359060200190929190505050612524565b005b348015610cd257600080fd5b50610cdb612683565b6040518082815260200191505060405180910390f35b348015610cfd57600080fd5b50610d1c6004803603810190808035906020019092919050505061268d565b005b348015610d2a57600080fd5b50610d33612743565b6040518082815260200191505060405180910390f35b348015610d5557600080fd5b50610d5e61274d565b6040518082815260200191505060405180910390f35b348015610d8057600080fd5b50610d89612753565b604051808215151515815260200191505060405180910390f35b348015610daf57600080fd5b50610de4600480360381019080803573ffffffffffffffffffffffffffffffffffffffff169060200190929190505050612816565b005b348015610df257600080fd5b50610dfb6128c9565b604051808215151515815260200191505060405180910390f35b348015610e2157600080fd5b50610e2a61298c565b6040518082815260200191505060405180910390f35b348015610e4c57600080fd5b50610e6b60048036038101908080359060200190929190505050612992565b005b348015610e7957600080fd5b50610e82612a48565b6040518082815260200191505060405180910390f35b348015610ea457600080fd5b50610ead612a52565b6040518082815260200191505060405180910390f35b348015610ecf57600080fd5b50610eee60048036038101908080359060200190929190505050612a58565b005b348015610efc57600080fd5b50610f3d600480360381019080803573ffffffffffffffffffffffffffffffffffffffff169060200190929190803515159060200190929190505050612b0e565b005b348015610f4b57600080fd5b50610f80600480360381019080803573ffffffffffffffffffffffffffffffffffffffff169060200190929190505050612c2c565b604051808260ff1660ff16815260200191505060405180910390f35b348015610fa857600080fd5b50610fb1612c85565b6040518082815260200191505060405180910390f35b348015610fd357600080fd5b50611008600480360381019080803573ffffffffffffffffffffffffffffffffffffffff169060200190929190505050612c8f565b604051808773ffffffffffffffffffffffffffffffffffffffff1673ffffffffffffffffffffffffffffffffffffffff168152602001868152602001858152602001848152602001831515151581526020018260ff1660ff168152602001965050505050505060405180910390f35b34801561108357600080fd5b506110c5600480360381019080803573ffffffffffffffffffffffffffffffffffffffff169060200190929190803560ff169060200190929190505050612d49565b005b3480156110d357600080fd5b506110f260048036038101908080359060200190929190505050612ebc565b604051808273ffffffffffffffffffffffffffffffffffffffff1673ffffffffffffffffffffffffffffffffffffffff16815260200191505060405180910390f35b34801561114057600080fd5b50611149612efa565b6040518082815260200191505060405180910390f35b34801561116b57600080fd5b50611174612f00565b6040518082815260200191505060405180910390f35b34801561119657600080fd5b506111cb600480360381019080803573ffffffffffffffffffffffffffffffffffffffff169060200190929190505050612f0a565b005b3480156111d957600080fd5b506111e2612fbd565b604051808215151515815260200191505060405180910390f35b34801561120857600080fd5b50611229600480360381019080803515159060200190929190505050612fd0565b005b34801561123757600080fd5b506112a3600480360381019080803573ffffffffffffffffffffffffffffffffffffffff169060200190929190803590602001909291908035906020019092919080359060200190929190803515159060200190929190803560ff169060200190929190505050613099565b005b3480156112b157600080fd5b506112ba613290565b6040518082815260200191505060405180910390f35b3480156112dc57600080fd5b50611311600480360381019080803573ffffffffffffffffffffffffffffffffffffffff169060200190929190505050613296565b6040518082815260200191505060405180910390f35b34801561133357600080fd5b5061133c6132e2565b604051808215151515815260200191505060405180910390f35b34801561136257600080fd5b5061136b6132f5565b604051808215151515815260200191505060405180910390f35b34801561139157600080fd5b506113b060048036038101908080359060200190929190505050613308565b005b3480156113be57600080fd5b506113c76133be565b6040518082815260200191505060405180910390f35b3480156113e957600080fd5b5061141e600480360381019080803573ffffffffffffffffffffffffffffffffffffffff1690602001909291905050506133c8565b604051808215151515815260200191505060405180910390f35b34801561144457600080fd5b5061144d61341d565b6040518082815260200191505060405180910390f35b34801561146f57600080fd5b506114a4600480360381019080803573ffffffffffffffffffffffffffffffffffffffff169060200190929190505050613423565b005b3480156114b257600080fd5b506114e7600480360381019080803573ffffffffffffffffffffffffffffffffffffffff1690602001909291905050506134d6565b005b60016020528060005260406000206000915054906101000a900460ff1681565b6000600f54905090565b6000600754905090565b600260003373ffffffffffffffffffffffffffffffffffffffff1673ffffffffffffffffffffffffffffffffffffffff16815260200190815260200160002060009054906101000a900460ff16806115be5750600160003373ffffffffffffffffffffffffffffffffffffffff1673ffffffffffffffffffffffffffffffffffffffff16815260200190815260200160002060009054906101000a900460ff165b15156115c957600080fd5b80600f8190555050565b6000600460008373ffffffffffffffffffffffffffffffffffffffff1673ffffffffffffffffffffffffffffffffffffffff168152602001908152602001600020600201549050919050565b600260003373ffffffffffffffffffffffffffffffffffffffff1673ffffffffffffffffffffffffffffffffffffffff16815260200190815260200160002060009054906101000a900460ff16806116c05750600160003373ffffffffffffffffffffffffffffffffffffffff1673ffffffffffffffffffffffffffffffffffffffff16815260200190815260200160002060009054906101000a900460ff165b15156116cb57600080fd5b8060108190555050565b60046020528060005260406000206000915090508060000160009054906101000a900473ffffffffffffffffffffffffffffffffffffffff16908060010154908060020154908060030154908060040160009054906101000a900460ff16908060040160019054906101000a900460ff16905086565b600160003373ffffffffffffffffffffffffffffffffffffffff1673ffffffffffffffffffffffffffffffffffffffff16815260200190815260200160002060009054906101000a900460ff1615156117a357600080fd5b6000600260008373ffffffffffffffffffffffffffffffffffffffff1673ffffffffffffffffffffffffffffffffffffffff16815260200190815260200160002060006101000a81548160ff02191690831515021790555050565b6000600460008373ffffffffffffffffffffffffffffffffffffffff1673ffffffffffffffffffffffffffffffffffffffff16815260200190815260200160002060040160009054906101000a900460ff169050919050565b600260003373ffffffffffffffffffffffffffffffffffffffff1673ffffffffffffffffffffffffffffffffffffffff16815260200190815260200160002060009054906101000a900460ff16806118f85750600160003373ffffffffffffffffffffffffffffffffffffffff1673ffffffffffffffffffffffffffffffffffffffff16815260200190815260200160002060009054906101000a900460ff165b151561190357600080fd5b8160058190806001815401808255809150509060018203906000526020600020016000909192909190916101000a81548173ffffffffffffffffffffffffffffffffffffffff021916908373ffffffffffffffffffffffffffffffffffffffff1602179055505081600460008573ffffffffffffffffffffffffffffffffffffffff1673ffffffffffffffffffffffffffffffffffffffff16815260200190815260200160002060010181905550505050565b600b5481565b600260003373ffffffffffffffffffffffffffffffffffffffff1673ffffffffffffffffffffffffffffffffffffffff16815260200190815260200160002060009054906101000a900460ff1680611a5d5750600160003373ffffffffffffffffffffffffffffffffffffffff1673ffffffffffffffffffffffffffffffffffffffff16815260200190815260200160002060009054906101000a900460ff165b1515611a6857600080fd5b8060128190555050565b6000600460008373ffffffffffffffffffffffffffffffffffffffff1673ffffffffffffffffffffffffffffffffffffffff168152602001908152602001600020600301549050919050565b60075481565b600260003373ffffffffffffffffffffffffffffffffffffffff1673ffffffffffffffffffffffffffffffffffffffff16815260200190815260200160002060009054906101000a900460ff1680611b655750600160003373ffffffffffffffffffffffffffffffffffffffff1673ffffffffffffffffffffffffffffffffffffffff16815260200190815260200160002060009054906101000a900460ff165b1515611b7057600080fd5b806000808473ffffffffffffffffffffffffffffffffffffffff1673ffffffffffffffffffffffffffffffffffffffff16815260200190815260200160002060006101000a81548160ff0219169083151502179055505050565b600e5481565b60105481565b600260003373ffffffffffffffffffffffffffffffffffffffff1673ffffffffffffffffffffffffffffffffffffffff16815260200190815260200160002060009054906101000a900460ff1680611c775750600160003373ffffffffffffffffffffffffffffffffffffffff1673ffffffffffffffffffffffffffffffffffffffff16815260200190815260200160002060009054906101000a900460ff165b1515611c8257600080fd5b8060118190555050565b60115481565b600260003373ffffffffffffffffffffffffffffffffffffffff1673ffffffffffffffffffffffffffffffffffffffff16815260200190815260200160002060009054906101000a900460ff1680611d335750600160003373ffffffffffffffffffffffffffffffffffffffff1673ffffffffffffffffffffffffffffffffffffffff16815260200190815260200160002060009054906101000a900460ff165b1515611d3e57600080fd5b80600d8190555050565b600160003373ffffffffffffffffffffffffffffffffffffffff1673ffffffffffffffffffffffffffffffffffffffff16815260200190815260200160002060009054906101000a900460ff161515611da057600080fd5b60018060008373ffffffffffffffffffffffffffffffffffffffff1673ffffffffffffffffffffffffffffffffffffffff16815260200190815260200160002060006101000a81548160ff02191690831515021790555050565b600260003373ffffffffffffffffffffffffffffffffffffffff1673ffffffffffffffffffffffffffffffffffffffff16815260200190815260200160002060009054906101000a900460ff1680611e9b5750600160003373ffffffffffffffffffffffffffffffffffffffff1673ffffffffffffffffffffffffffffffffffffffff16815260200190815260200160002060009054906101000a900460ff165b1515611ea657600080fd5b80600b8190555050565b600260003373ffffffffffffffffffffffffffffffffffffffff1673ffffffffffffffffffffffffffffffffffffffff16815260200190815260200160002060009054906101000a900460ff1680611f515750600160003373ffffffffffffffffffffffffffffffffffffffff1673ffffffffffffffffffffffffffffffffffffffff16815260200190815260200160002060009054906101000a900460ff165b1515611f5c57600080fd5b8160058190806001815401808255809150509060018203906000526020600020016000909192909190916101000a81548173ffffffffffffffffffffffffffffffffffffffff021916908373ffffffffffffffffffffffffffffffffffffffff1602179055505081600460008573ffffffffffffffffffffffffffffffffffffffff1673ffffffffffffffffffffffffffffffffffffffff16815260200190815260200160002060030181905550505050565b60006020528060005260406000206000915054906101000a900460ff1681565b60036020528060005260406000206000915054906101000a900460ff1681565b6000600c54905090565b6000600854905090565b6000600260003373ffffffffffffffffffffffffffffffffffffffff1673ffffffffffffffffffffffffffffffffffffffff16815260200190815260200160002060009054906101000a900460ff16806121065750600160003373ffffffffffffffffffffffffffffffffffffffff1673ffffffffffffffffffffffffffffffffffffffff16815260200190815260200160002060009054906101000a900460ff165b151561211157600080fd5b600660009054906101000a900460ff16905090565b600260003373ffffffffffffffffffffffffffffffffffffffff1673ffffffffffffffffffffffffffffffffffffffff16815260200190815260200160002060009054906101000a900460ff16806121c75750600160003373ffffffffffffffffffffffffffffffffffffffff1673ffffffffffffffffffffffffffffffffffffffff16815260200190815260200160002060009054906101000a900460ff165b15156121d257600080fd5b80600e8190555050565b6000600a54905090565b600260003373ffffffffffffffffffffffffffffffffffffffff1673ffffffffffffffffffffffffffffffffffffffff16815260200190815260200160002060009054906101000a900460ff16806122875750600160003373ffffffffffffffffffffffffffffffffffffffff1673ffffffffffffffffffffffffffffffffffffffff16815260200190815260200160002060009054906101000a900460ff165b151561229257600080fd5b80600660016101000a81548160ff02191690831515021790555050565b6000600d54905090565b6000601054905090565b600d5481565b60026020528060005260406000206000915054906101000a900460ff1681565b600260003373ffffffffffffffffffffffffffffffffffffffff1673ffffffffffffffffffffffffffffffffffffffff16815260200190815260200160002060009054906101000a900460ff168061238a5750600160003373ffffffffffffffffffffffffffffffffffffffff1673ffffffffffffffffffffffffffffffffffffffff16815260200190815260200160002060009054906101000a900460ff165b151561239557600080fd5b8060098190555050565b600260003373ffffffffffffffffffffffffffffffffffffffff1673ffffffffffffffffffffffffffffffffffffffff16815260200190815260200160002060009054906101000a900460ff16806124405750600160003373ffffffffffffffffffffffffffffffffffffffff1673ffffffffffffffffffffffffffffffffffffffff16815260200190815260200160002060009054906101000a900460ff165b151561244b57600080fd5b80600660006101000a81548160ff02191690831515021790555050565b60095481565b600260003373ffffffffffffffffffffffffffffffffffffffff1673ffffffffffffffffffffffffffffffffffffffff16815260200190815260200160002060009054906101000a900460ff168061250f5750600160003373ffffffffffffffffffffffffffffffffffffffff1673ffffffffffffffffffffffffffffffffffffffff16815260200190815260200160002060009054906101000a900460ff165b151561251a57600080fd5b80600c8190555050565b600260003373ffffffffffffffffffffffffffffffffffffffff1673ffffffffffffffffffffffffffffffffffffffff16815260200190815260200160002060009054906101000a900460ff16806125c55750600160003373ffffffffffffffffffffffffffffffffffffffff1673ffffffffffffffffffffffffffffffffffffffff16815260200190815260200160002060009054906101000a900460ff165b15156125d057600080fd5b8160058190806001815401808255809150509060018203906000526020600020016000909192909190916101000a81548173ffffffffffffffffffffffffffffffffffffffff021916908373ffffffffffffffffffffffffffffffffffffffff1602179055505081600460008573ffffffffffffffffffffffffffffffffffffffff1673ffffffffffffffffffffffffffffffffffffffff16815260200190815260200160002060020181905550505050565b6000601354905090565b600260003373ffffffffffffffffffffffffffffffffffffffff1673ffffffffffffffffffffffffffffffffffffffff16815260200190815260200160002060009054906101000a900460ff168061272e5750600160003373ffffffffffffffffffffffffffffffffffffffff1673ffffffffffffffffffffffffffffffffffffffff16815260200190815260200160002060009054906101000a900460ff165b151561273957600080fd5b80600a8190555050565b6000600e54905090565b60085481565b6000600260003373ffffffffffffffffffffffffffffffffffffffff1673ffffffffffffffffffffffffffffffffffffffff16815260200190815260200160002060009054906101000a900460ff16806127f65750600160003373ffffffffffffffffffffffffffffffffffffffff1673ffffffffffffffffffffffffffffffffffffffff16815260200190815260200160002060009054906101000a900460ff165b151561280157600080fd5b600660029054906101000a900460ff16905090565b600160003373ffffffffffffffffffffffffffffffffffffffff1673ffffffffffffffffffffffffffffffffffffffff16815260200190815260200160002060009054906101000a900460ff16151561286e57600080fd5b6000600360008373ffffffffffffffffffffffffffffffffffffffff1673ffffffffffffffffffffffffffffffffffffffff16815260200190815260200160002060006101000a81548160ff02191690831515021790555050565b6000600260003373ffffffffffffffffffffffffffffffffffffffff1673ffffffffffffffffffffffffffffffffffffffff16815260200190815260200160002060009054906101000a900460ff168061296c5750600160003373ffffffffffffffffffffffffffffffffffffffff1673ffffffffffffffffffffffffffffffffffffffff16815260200190815260200160002060009054906101000a900460ff165b151561297757600080fd5b600660019054906101000a900460ff16905090565b60135481565b600260003373ffffffffffffffffffffffffffffffffffffffff1673ffffffffffffffffffffffffffffffffffffffff16815260200190815260200160002060009054906101000a900460ff1680612a335750600160003373ffffffffffffffffffffffffffffffffffffffff1673ffffffffffffffffffffffffffffffffffffffff16815260200190815260200160002060009054906101000a900460ff165b1515612a3e57600080fd5b8060088190555050565b6000601154905090565b60125481565b600260003373ffffffffffffffffffffffffffffffffffffffff1673ffffffffffffffffffffffffffffffffffffffff16815260200190815260200160002060009054906101000a900460ff1680612af95750600160003373ffffffffffffffffffffffffffffffffffffffff1673ffffffffffffffffffffffffffffffffffffffff16815260200190815260200160002060009054906101000a900460ff165b1515612b0457600080fd5b8060138190555050565b600360003373ffffffffffffffffffffffffffffffffffffffff1673ffffffffffffffffffffffffffffffffffffffff16815260200190815260200160002060009054906101000a900460ff161515612b6657600080fd5b8160058190806001815401808255809150509060018203906000526020600020016000909192909190916101000a81548173ffffffffffffffffffffffffffffffffffffffff021916908373ffffffffffffffffffffffffffffffffffffffff1602179055505081600460008573ffffffffffffffffffffffffffffffffffffffff1673ffffffffffffffffffffffffffffffffffffffff16815260200190815260200160002060040160006101000a81548160ff021916908315150217905550505050565b6000600460008373ffffffffffffffffffffffffffffffffffffffff1673ffffffffffffffffffffffffffffffffffffffff16815260200190815260200160002060040160019054906101000a900460ff169050919050565b6000600954905090565b6000806000806000806000600460008973ffffffffffffffffffffffffffffffffffffffff1673ffffffffffffffffffffffffffffffffffffffff16815260200190815260200160002090508060000160009054906101000a900473ffffffffffffffffffffffffffffffffffffffff168160010154826002015483600301548460040160009054906101000a900460ff168560040160019054906101000a900460ff169650965096509650965096505091939550919395565b600260003373ffffffffffffffffffffffffffffffffffffffff1673ffffffffffffffffffffffffffffffffffffffff16815260200190815260200160002060009054906101000a900460ff1680612dea5750600160003373ffffffffffffffffffffffffffffffffffffffff1673ffffffffffffffffffffffffffffffffffffffff16815260200190815260200160002060009054906101000a900460ff165b1515612df557600080fd5b8160058190806001815401808255809150509060018203906000526020600020016000909192909190916101000a81548173ffffffffffffffffffffffffffffffffffffffff021916908373ffffffffffffffffffffffffffffffffffffffff1602179055505081600460008573ffffffffffffffffffffffffffffffffffffffff1673ffffffffffffffffffffffffffffffffffffffff16815260200190815260200160002060040160016101000a81548160ff021916908360ff160217905550505050565b600581815481101515612ecb57fe5b906000526020600020016000915054906101000a900473ffffffffffffffffffffffffffffffffffffffff1681565b600a5481565b6000601254905090565b600160003373ffffffffffffffffffffffffffffffffffffffff1673ffffffffffffffffffffffffffffffffffffffff16815260200190815260200160002060009054906101000a900460ff161515612f6257600080fd5b6001600260008373ffffffffffffffffffffffffffffffffffffffff1673ffffffffffffffffffffffffffffffffffffffff16815260200190815260200160002060006101000a81548160ff02191690831515021790555050565b600660019054906101000a900460ff1681565b600260003373ffffffffffffffffffffffffffffffffffffffff1673ffffffffffffffffffffffffffffffffffffffff16815260200190815260200160002060009054906101000a900460ff16806130715750600160003373ffffffffffffffffffffffffffffffffffffffff1673ffffffffffffffffffffffffffffffffffffffff16815260200190815260200160002060009054906101000a900460ff165b151561307c57600080fd5b80600660026101000a81548160ff02191690831515021790555050565b6000600260003373ffffffffffffffffffffffffffffffffffffffff1673ffffffffffffffffffffffffffffffffffffffff16815260200190815260200160002060009054906101000a900460ff168061313c5750600160003373ffffffffffffffffffffffffffffffffffffffff1673ffffffffffffffffffffffffffffffffffffffff16815260200190815260200160002060009054906101000a900460ff165b151561314757600080fd5b8660058190806001815401808255809150509060018203906000526020600020016000909192909190916101000a81548173ffffffffffffffffffffffffffffffffffffffff021916908373ffffffffffffffffffffffffffffffffffffffff16021790555050600460008973ffffffffffffffffffffffffffffffffffffffff1673ffffffffffffffffffffffffffffffffffffffff1681526020019081526020016000209150878260000160006101000a81548173ffffffffffffffffffffffffffffffffffffffff021916908373ffffffffffffffffffffffffffffffffffffffff160217905550868260010181905550858260020181905550848260030181905550838260040160006101000a81548160ff021916908315150217905550828260040160016101000a81548160ff021916908360ff1602179055505050505050505050565b600c5481565b6000600460008373ffffffffffffffffffffffffffffffffffffffff1673ffffffffffffffffffffffffffffffffffffffff168152602001908152602001600020600101549050919050565b600660009054906101000a900460ff1681565b600660029054906101000a900460ff1681565b600260003373ffffffffffffffffffffffffffffffffffffffff1673ffffffffffffffffffffffffffffffffffffffff16815260200190815260200160002060009054906101000a900460ff16806133a95750600160003373ffffffffffffffffffffffffffffffffffffffff1673ffffffffffffffffffffffffffffffffffffffff16815260200190815260200160002060009054906101000a900460ff165b15156133b457600080fd5b8060078190555050565b6000600b54905090565b60008060008373ffffffffffffffffffffffffffffffffffffffff1673ffffffffffffffffffffffffffffffffffffffff16815260200190815260200160002060009054906101000a900460ff169050919050565b600f5481565b600160003373ffffffffffffffffffffffffffffffffffffffff1673ffffffffffffffffffffffffffffffffffffffff16815260200190815260200160002060009054906101000a900460ff16151561347b57600080fd5b6000600160008373ffffffffffffffffffffffffffffffffffffffff1673ffffffffffffffffffffffffffffffffffffffff16815260200190815260200160002060006101000a81548160ff02191690831515021790555050565b600160003373ffffffffffffffffffffffffffffffffffffffff1673ffffffffffffffffffffffffffffffffffffffff16815260200190815260200160002060009054906101000a900460ff16151561352e57600080fd5b6001600360008373ffffffffffffffffffffffffffffffffffffffff1673ffffffffffffffffffffffffffffffffffffffff16815260200190815260200160002060006101000a81548160ff021916908315150217905550505600a165627a7a723058202b3ddcb08470880b3d3bb01af3272c203065fcd4ee3b3831004afb63d100a5be0029",
  "source": "pragma solidity 0.4.24;\r\n\r\nimport \"./safe_math_lib.sol\";\r\n\r\ncontract database {\r\n\r\n    /* libraries */\r\n    using SafeMath for uint256;\r\n\r\n    /* struct declarations */\r\n    struct participant {\r\n        address eth_address; // your eth address\r\n        uint256 topl_address; // your topl address\r\n        uint256 arbits; // the amount of a arbits you have\r\n        uint256 num_of_pro_rata_tokens_alloted;\r\n        bool arbits_kyc_whitelist; // if you pass arbits level kyc you get this\r\n        uint8 num_of_uses;\r\n    }\r\n\r\n    /* variable declarations */\r\n    // permission variables\r\n    mapping(address => bool) public sale_owners;\r\n    mapping(address => bool) public owners;\r\n    mapping(address => bool) public masters;\r\n    mapping(address => bool) public kycers;\r\n\r\n    // database mapping\r\n    mapping(address => participant) public participants;\r\n    address[] public participant_keys;\r\n\r\n    // sale open variables\r\n    bool public arbits_presale_open = false; // Presale variables\r\n    bool public iconiq_presale_open = false; // ^^^^^^^^^^^^^^^^^\r\n    bool public arbits_sale_open = false; // Main sale variables\r\n\r\n    // sale state variables\r\n    uint256 public pre_kyc_bonus_denominator;\r\n    uint256 public pre_kyc_bonus_numerator;\r\n    uint256 public pre_kyc_iconiq_bonus_denominator;\r\n    uint256 public pre_kyc_iconiq_bonus_numerator;\r\n\r\n    uint256 public contrib_arbits_min;\r\n    uint256 public contrib_arbits_max;\r\n\r\n    // presale variables\r\n    uint256 public presale_arbits_per_ether;        // two different prices, but same cap\r\n    uint256 public presale_iconiq_arbits_per_ether; // and sold values\r\n    uint256 public presale_arbits_total = 18000000;\r\n    uint256 public presale_arbits_sold;\r\n\r\n    // main sale variables\r\n    uint256 public sale_arbits_per_ether;\r\n    uint256 public sale_arbits_total;\r\n    uint256 public sale_arbits_sold;\r\n\r\n    /* constructor */\r\n    constructor() public {\r\n        owners[msg.sender] = true;\r\n    }\r\n\r\n    /* permission functions */\r\n    function add_owner(address __subject) public only_owner {\r\n        owners[__subject] = true;\r\n    }\r\n\r\n    function remove_owner(address __subject) public only_owner {\r\n        owners[__subject] = false;\r\n    }\r\n\r\n    function add_master(address _subject) public only_owner {\r\n        masters[_subject] = true;\r\n    }\r\n\r\n    function remove_master(address _subject) public only_owner {\r\n        masters[_subject] = false;\r\n    }\r\n\r\n    function add_kycer(address _subject) public only_owner {\r\n        kycers[_subject] = true;\r\n    }\r\n\r\n    function remove_kycer(address _subject) public only_owner {\r\n        kycers[_subject] = false;\r\n    }\r\n\r\n    /* modifiers */\r\n    modifier log_participant_update(address __eth_address) {\r\n        participant_keys.push(__eth_address); // logs the given address in participant_keys\r\n        _;\r\n    }\r\n\r\n    modifier only_owner() {\r\n        require(owners[msg.sender]);\r\n        _;\r\n    }\r\n\r\n    modifier only_kycer() {\r\n        require(kycers[msg.sender]);\r\n        _;\r\n    }\r\n\r\n    modifier only_master_or_owner() {\r\n        require(masters[msg.sender] || owners[msg.sender]);\r\n        _;\r\n    }\r\n\r\n    /* database functions */\r\n    // GENERAL VARIABLE getters & setters\r\n    // getters    \r\n    function get_sale_owner(address _a) public view returns(bool) {\r\n        return sale_owners[_a];\r\n    }\r\n    \r\n    function get_contrib_arbits_min() public view returns(uint256) {\r\n        return contrib_arbits_min;\r\n    }\r\n\r\n    function get_contrib_arbits_max() public view returns(uint256) {\r\n        return contrib_arbits_max;\r\n    }\r\n\r\n    function get_pre_kyc_bonus_numerator() public view returns(uint256) {\r\n        return pre_kyc_bonus_numerator;\r\n    }\r\n\r\n    function get_pre_kyc_bonus_denominator() public view returns(uint256) {\r\n        return pre_kyc_bonus_denominator;\r\n    }\r\n\r\n    function get_pre_kyc_iconiq_bonus_numerator() public view returns(uint256) {\r\n        return pre_kyc_iconiq_bonus_numerator;\r\n    }\r\n\r\n    function get_pre_kyc_iconiq_bonus_denominator() public view returns(uint256) {\r\n        return pre_kyc_iconiq_bonus_denominator;\r\n    }\r\n\r\n    function get_presale_iconiq_arbits_per_ether() public view returns(uint256) {\r\n        return (presale_iconiq_arbits_per_ether);\r\n    }\r\n\r\n    function get_presale_arbits_per_ether() public view returns(uint256) {\r\n        return (presale_arbits_per_ether);\r\n    }\r\n\r\n    function get_presale_arbits_total() public view returns(uint256) {\r\n        return (presale_arbits_total);\r\n    }\r\n\r\n    function get_presale_arbits_sold() public view returns(uint256) {\r\n        return (presale_arbits_sold);\r\n    }\r\n\r\n    function get_sale_arbits_per_ether() public view returns(uint256) {\r\n        return (sale_arbits_per_ether);\r\n    }\r\n\r\n    function get_sale_arbits_total() public view returns(uint256) {\r\n        return (sale_arbits_total);\r\n    }\r\n\r\n    function get_sale_arbits_sold() public view returns(uint256) {\r\n        return (sale_arbits_sold);\r\n    }\r\n\r\n    // setters\r\n    function set_sale_owner(address _a, bool _v) public only_master_or_owner {\r\n        sale_owners[_a] = _v;\r\n    }\r\n\r\n    function set_contrib_arbits_min(uint256 _v) public only_master_or_owner {\r\n        contrib_arbits_min = _v;\r\n    }\r\n\r\n    function set_contrib_arbits_max(uint256 _v) public only_master_or_owner {\r\n        contrib_arbits_max = _v;\r\n    }\r\n\r\n    function set_pre_kyc_bonus_numerator(uint256 _v) public only_master_or_owner {\r\n        pre_kyc_bonus_numerator = _v;\r\n    }\r\n\r\n    function set_pre_kyc_bonus_denominator(uint256 _v) public only_master_or_owner {\r\n        pre_kyc_bonus_denominator = _v;\r\n    }\r\n\r\n    function set_pre_kyc_iconiq_bonus_numerator(uint256 _v) public only_master_or_owner {\r\n        pre_kyc_iconiq_bonus_numerator = _v;\r\n    }\r\n\r\n    function set_pre_kyc_iconiq_bonus_denominator(uint256 _v) public only_master_or_owner {\r\n        pre_kyc_iconiq_bonus_denominator = _v;\r\n    }\r\n\r\n    function set_presale_iconiq_arbits_per_ether(uint256 _v) public only_master_or_owner {\r\n        presale_iconiq_arbits_per_ether = _v;\r\n    }\r\n\r\n    function set_presale_arbits_per_ether(uint256 _v) public only_master_or_owner {\r\n        presale_arbits_per_ether = _v;\r\n    }\r\n\r\n    function set_presale_arbits_total(uint256 _v) public only_master_or_owner {\r\n        presale_arbits_total = _v;\r\n    }\r\n\r\n    function set_presale_arbits_sold(uint256 _v) public only_master_or_owner {\r\n        presale_arbits_sold = _v;\r\n    }\r\n\r\n    function set_sale_arbits_per_ether(uint256 _v) public only_master_or_owner {\r\n        sale_arbits_per_ether = _v;\r\n    }\r\n\r\n    function set_sale_arbits_total(uint256 _v) public only_master_or_owner {\r\n        sale_arbits_total = _v;\r\n    }\r\n\r\n    function set_sale_arbits_sold(uint256 _v) public only_master_or_owner {\r\n        sale_arbits_sold = _v;\r\n    }\r\n\r\n    // PARTICIPANT SPECIFIC getters and setters\r\n    // getters\r\n    function get_participant(address _a) public view returns(\r\n        address,\r\n        uint256,\r\n        uint256,\r\n        uint256,\r\n        bool,\r\n        uint8\r\n    ) {\r\n        participant storage subject = participants[_a];\r\n        return (\r\n            subject.eth_address,\r\n            subject.topl_address,\r\n            subject.arbits,\r\n            subject.num_of_pro_rata_tokens_alloted,\r\n            subject.arbits_kyc_whitelist,\r\n            subject.num_of_uses\r\n        );\r\n    }\r\n\r\n    function get_participant_num_of_uses(address _a) public view returns(uint8) {\r\n        return (participants[_a].num_of_uses);\r\n    }\r\n\r\n    function get_participant_topl_address(address _a) public view returns(uint256) {\r\n        return (participants[_a].topl_address);\r\n    }\r\n\r\n    function get_participant_arbits(address _a) public view returns(uint256) {\r\n        return (participants[_a].arbits);\r\n    }\r\n\r\n    function get_participant_num_of_pro_rata_tokens_alloted(address _a) public view returns(uint256) {\r\n        return (participants[_a].num_of_pro_rata_tokens_alloted);\r\n    }\r\n\r\n    function get_participant_arbits_kyc_whitelist(address _a) public view returns(bool) {\r\n        return (participants[_a].arbits_kyc_whitelist);\r\n    }\r\n\r\n    // setters\r\n    function set_participant(\r\n        address _a,\r\n        uint256 _ta,\r\n        uint256 _arbits,\r\n        uint256 _prta,\r\n        bool _v3,\r\n        uint8 _nou\r\n    ) public only_master_or_owner log_participant_update(_a) {\r\n        participant storage subject = participants[_a];\r\n        subject.eth_address = _a;\r\n        subject.topl_address = _ta;\r\n        subject.arbits = _arbits;\r\n        subject.num_of_pro_rata_tokens_alloted = _prta;\r\n        subject.arbits_kyc_whitelist = _v3;\r\n        subject.num_of_uses = _nou;\r\n    }\r\n\r\n    function set_participant_num_of_uses(\r\n        address _a,\r\n        uint8 _v\r\n    ) public only_master_or_owner log_participant_update(_a) {\r\n        participants[_a].num_of_uses = _v;\r\n    }\r\n\r\n    function set_participant_topl_address(\r\n        address _a,\r\n        uint256 _ta\r\n    ) public only_master_or_owner log_participant_update(_a) {\r\n        participants[_a].topl_address = _ta;\r\n    }\r\n\r\n    function set_participant_arbits(\r\n        address _a,\r\n        uint256 _v\r\n    ) public only_master_or_owner log_participant_update(_a) {\r\n        participants[_a].arbits = _v;\r\n    }\r\n\r\n    function set_participant_num_of_pro_rata_tokens_alloted(\r\n        address _a,\r\n        uint256 _v\r\n    ) public only_master_or_owner log_participant_update(_a) {\r\n        participants[_a].num_of_pro_rata_tokens_alloted = _v;\r\n    }\r\n\r\n    function set_participant_arbits_kyc_whitelist(\r\n        address _a,\r\n        bool _v\r\n    ) public only_kycer log_participant_update(_a) {\r\n        participants[_a].arbits_kyc_whitelist = _v;\r\n    }\r\n\r\n\r\n    //\r\n    // STATE FLAG FUNCTIONS: Getter, setter, and toggling functions for state flags.\r\n\r\n    // GETTERS\r\n    function get_iconiq_presale_open() public view only_master_or_owner returns(bool) {\r\n        return iconiq_presale_open;\r\n    }\r\n\r\n    function get_arbits_presale_open() public view only_master_or_owner returns(bool) {\r\n        return arbits_presale_open;\r\n    }\r\n\r\n    function get_arbits_sale_open() public view only_master_or_owner returns(bool) {\r\n        return arbits_sale_open;\r\n    }\r\n\r\n    // SETTERS\r\n    function set_iconiq_presale_open(bool _v) public only_master_or_owner {\r\n        iconiq_presale_open = _v;\r\n    }\r\n\r\n    function set_arbits_presale_open(bool _v) public only_master_or_owner {\r\n        arbits_presale_open = _v;\r\n    }\r\n\r\n    function set_arbits_sale_open(bool _v) public only_master_or_owner {\r\n        arbits_sale_open = _v;\r\n    }\r\n\r\n}\r\n",
  "sourcePath": "C:\\git\\Midgard\\contracts\\database.sol",
  "compiler": {
    "name": "solc",
    "version": "0.4.24+commit.e67f0147.Emscripten.clang"
  },
  "schemaVersion": "2.0.1",
  "updatedAt": "2018-10-06T07:24:23.392Z"
}