{
  "contractName": "iconiq_presale",
  "abi": [
    {
      "constant": true,
      "inputs": [],
      "name": "db",
      "outputs": [
        {
          "name": "",
          "type": "address"
        }
      ],
      "payable": false,
      "stateMutability": "view",
      "type": "function"
    },
    {
      "constant": true,
      "inputs": [],
      "name": "owner",
      "outputs": [
        {
          "name": "",
          "type": "address"
        }
      ],
      "payable": false,
      "stateMutability": "view",
      "type": "function"
    },
    {
      "inputs": [
        {
          "name": "__db",
          "type": "address"
        }
      ],
      "payable": false,
      "stateMutability": "nonpayable",
      "type": "constructor"
    },
    {
      "payable": true,
      "stateMutability": "payable",
      "type": "fallback"
    },
    {
      "anonymous": false,
      "inputs": [
        {
          "indexed": false,
          "name": "",
          "type": "address"
        },
        {
          "indexed": false,
          "name": "",
          "type": "address"
        }
      ],
      "name": "e_add_owner",
      "type": "event"
    },
    {
      "anonymous": false,
      "inputs": [
        {
          "indexed": false,
          "name": "",
          "type": "address"
        },
        {
          "indexed": false,
          "name": "",
          "type": "address"
        }
      ],
      "name": "e_remove_owner",
      "type": "event"
    },
    {
      "anonymous": false,
      "inputs": [
        {
          "indexed": false,
          "name": "",
          "type": "address"
        },
        {
          "indexed": false,
          "name": "",
          "type": "uint256"
        }
      ],
      "name": "e_participate_in_arbits_presale_crypto",
      "type": "event"
    },
    {
      "anonymous": false,
      "inputs": [
        {
          "indexed": false,
          "name": "",
          "type": "address"
        },
        {
          "indexed": false,
          "name": "",
          "type": "uint256"
        }
      ],
      "name": "e_fallback",
      "type": "event"
    },
    {
      "anonymous": false,
      "inputs": [
        {
          "indexed": false,
          "name": "",
          "type": "address"
        }
      ],
      "name": "e_kill_and_withdraw",
      "type": "event"
    },
    {
      "anonymous": false,
      "inputs": [
        {
          "indexed": false,
          "name": "",
          "type": "address"
        },
        {
          "indexed": false,
          "name": "",
          "type": "uint256"
        }
      ],
      "name": "e_withdraw_some_amount",
      "type": "event"
    },
    {
      "constant": false,
      "inputs": [],
      "name": "owner_linkage",
      "outputs": [],
      "payable": false,
      "stateMutability": "nonpayable",
      "type": "function"
    },
    {
      "constant": false,
      "inputs": [
        {
          "name": "__subject",
          "type": "address"
        }
      ],
      "name": "add_owner",
      "outputs": [],
      "payable": false,
      "stateMutability": "nonpayable",
      "type": "function"
    },
    {
      "constant": false,
      "inputs": [
        {
          "name": "__subject",
          "type": "address"
        }
      ],
      "name": "remove_owner",
      "outputs": [],
      "payable": false,
      "stateMutability": "nonpayable",
      "type": "function"
    },
    {
      "constant": false,
      "inputs": [],
      "name": "participate_in_arbits_presale_crypto",
      "outputs": [],
      "payable": true,
      "stateMutability": "payable",
      "type": "function"
    },
    {
      "constant": false,
      "inputs": [
        {
          "name": "withdraw_to",
          "type": "address"
        }
      ],
      "name": "kill_and_withdraw",
      "outputs": [],
      "payable": false,
      "stateMutability": "nonpayable",
      "type": "function"
    },
    {
      "constant": false,
      "inputs": [
        {
          "name": "withdraw_to",
          "type": "address"
        },
        {
          "name": "amount",
          "type": "uint256"
        }
      ],
      "name": "withdraw_some_amount",
      "outputs": [],
      "payable": false,
      "stateMutability": "nonpayable",
      "type": "function"
    },
    {
      "constant": false,
      "inputs": [],
      "name": "set_sale_open",
      "outputs": [],
      "payable": false,
      "stateMutability": "nonpayable",
      "type": "function"
    },
    {
      "constant": false,
      "inputs": [],
      "name": "set_sale_closed",
      "outputs": [],
      "payable": false,
      "stateMutability": "nonpayable",
      "type": "function"
    },
    {
      "constant": false,
      "inputs": [
        {
          "name": "_v",
          "type": "uint256"
        }
      ],
      "name": "set_iconiq_arbits_per_ether",
      "outputs": [],
      "payable": false,
      "stateMutability": "nonpayable",
      "type": "function"
    },
    {
      "constant": false,
      "inputs": [
        {
          "name": "_v",
          "type": "uint256"
        }
      ],
      "name": "set_iconiq_pre_kyc_bonus_numerator",
      "outputs": [],
      "payable": false,
      "stateMutability": "nonpayable",
      "type": "function"
    },
    {
      "constant": false,
      "inputs": [
        {
          "name": "_v",
          "type": "uint256"
        }
      ],
      "name": "set_iconiq_pre_kyc_bonus_denominator",
      "outputs": [],
      "payable": false,
      "stateMutability": "nonpayable",
      "type": "function"
    },
    {
      "constant": true,
      "inputs": [],
      "name": "is_presale_open",
      "outputs": [
        {
          "name": "",
          "type": "bool"
        }
      ],
      "payable": false,
      "stateMutability": "view",
      "type": "function"
    },
    {
      "constant": true,
      "inputs": [],
      "name": "am_i_on_the_whitelist",
      "outputs": [
        {
          "name": "",
          "type": "bool"
        }
      ],
      "payable": false,
      "stateMutability": "view",
      "type": "function"
    },
    {
      "constant": true,
      "inputs": [],
      "name": "how_many_arbits_do_i_have",
      "outputs": [
        {
          "name": "",
          "type": "uint256"
        }
      ],
      "payable": false,
      "stateMutability": "view",
      "type": "function"
    }
  ],
  "bytecode": "0x608060405234801561001057600080fd5b50604051602080612e5b8339810180604052810190808051906020019092919050505080600160006101000a81548173ffffffffffffffffffffffffffffffffffffffff021916908373ffffffffffffffffffffffffffffffffffffffff160217905550336000806101000a81548173ffffffffffffffffffffffffffffffffffffffff021916908373ffffffffffffffffffffffffffffffffffffffff16021790555050612d97806100c46000396000f3006080604052600436106100e6576000357c0100000000000000000000000000000000000000000000000000000000900463ffffffff1680631fe08e281461015b57806347c3ebf3146101865780634a75e741146101b55780634d655aff146101f857806367d229671461024f5780636e1019671461027c5780638076bd41146102a95780638da5cb5b146102c05780639249bc751461031757806396bcf2361461032e578063b2b106d61461035d578063badca13114610367578063bc81f147146103aa578063d7d23155146103d7578063dadd9e8e146103ee578063f6b9571a1461043b575b6100ee61047e565b7f07269cceed46487a390abf33e24a29de2820b81614d292bcd2c554694f1ff6683334604051808373ffffffffffffffffffffffffffffffffffffffff1673ffffffffffffffffffffffffffffffffffffffff1681526020018281526020019250505060405180910390a1005b34801561016757600080fd5b50610170610b56565b6040518082815260200191505060405180910390f35b34801561019257600080fd5b5061019b610ba8565b604051808215151515815260200191505060405180910390f35b3480156101c157600080fd5b506101f6600480360381019080803573ffffffffffffffffffffffffffffffffffffffff169060200190929190505050610bf0565b005b34801561020457600080fd5b5061020d610d2d565b604051808273ffffffffffffffffffffffffffffffffffffffff1673ffffffffffffffffffffffffffffffffffffffff16815260200191505060405180910390f35b34801561025b57600080fd5b5061027a60048036038101908080359060200190929190505050610d53565b005b34801561028857600080fd5b506102a760048036038101908080359060200190929190505050610df7565b005b3480156102b557600080fd5b506102be610e9b565b005b3480156102cc57600080fd5b506102d5610f3f565b604051808273ffffffffffffffffffffffffffffffffffffffff1673ffffffffffffffffffffffffffffffffffffffff16815260200191505060405180910390f35b34801561032357600080fd5b5061032c610f64565b005b34801561033a57600080fd5b506103436111e1565b604051808215151515815260200191505060405180910390f35b61036561047e565b005b34801561037357600080fd5b506103a8600480360381019080803573ffffffffffffffffffffffffffffffffffffffff169060200190929190505050611233565b005b3480156103b657600080fd5b506103d560048036038101908080359060200190929190505050611305565b005b3480156103e357600080fd5b506103ec6113a9565b005b3480156103fa57600080fd5b50610439600480360381019080803573ffffffffffffffffffffffffffffffffffffffff16906020019092919080359060200190929190505050611419565b005b34801561044757600080fd5b5061047c600480360381019080803573ffffffffffffffffffffffffffffffffffffffff169060200190929190505050611525565b005b60008060008060008061048f612d19565b60008060008060006104d8600160009054906101000a900473ffffffffffffffffffffffffffffffffffffffff1673ffffffffffffffffffffffffffffffffffffffff16611663565b15156104e357600080fd5b600061053033600160009054906101000a900473ffffffffffffffffffffffffffffffffffffffff1673ffffffffffffffffffffffffffffffffffffffff1661170b90919063ffffffff16565b905060058160ff1610151561054457600080fd5b6105943360018301600160009054906101000a900473ffffffffffffffffffffffffffffffffffffffff1673ffffffffffffffffffffffffffffffffffffffff166117eb9092919063ffffffff16565b6105df33600160009054906101000a900473ffffffffffffffffffffffffffffffffffffffff1673ffffffffffffffffffffffffffffffffffffffff1661192290919063ffffffff16565b9c509c509c509c509c509c5060c0604051908101604052808e73ffffffffffffffffffffffffffffffffffffffff1681526020018d81526020018c81526020018b81526020018a151581526020018960ff1681525096506000876060015111151561064957600080fd5b6106b6670de0b6b3a76400006106a8610699600160009054906101000a900473ffffffffffffffffffffffffffffffffffffffff1673ffffffffffffffffffffffffffffffffffffffff16611a49565b34611af190919063ffffffff16565b611b2f90919063ffffffff16565b9550610725670de0b6b3a7640000610717610708600160009054906101000a900473ffffffffffffffffffffffffffffffffffffffff1673ffffffffffffffffffffffffffffffffffffffff16611b59565b34611af190919063ffffffff16565b611b2f90919063ffffffff16565b94508660600151935060009250610749868860400151611c0190919063ffffffff16565b8410151561075957859250610853565b838760400151101561084e5761077c876040015185611c2290919063ffffffff16565b91506108476108386107c5600160009054906101000a900473ffffffffffffffffffffffffffffffffffffffff1673ffffffffffffffffffffffffffffffffffffffff16611a49565b61082a610809600160009054906101000a900473ffffffffffffffffffffffffffffffffffffffff1673ffffffffffffffffffffffffffffffffffffffff16611b59565b61081c878c611c2290919063ffffffff16565b611af190919063ffffffff16565b611b2f90919063ffffffff16565b83611c0190919063ffffffff16565b9250610852565b8492505b5b866080015115610905576109026108a1600160009054906101000a900473ffffffffffffffffffffffffffffffffffffffff1673ffffffffffffffffffffffffffffffffffffffff16611c43565b6108f46108e5600160009054906101000a900473ffffffffffffffffffffffffffffffffffffffff1673ffffffffffffffffffffffffffffffffffffffff16611ceb565b86611af190919063ffffffff16565b611b2f90919063ffffffff16565b92505b6109588361094a600160009054906101000a900473ffffffffffffffffffffffffffffffffffffffff1673ffffffffffffffffffffffffffffffffffffffff16611d93565b611c0190919063ffffffff16565b610999600160009054906101000a900473ffffffffffffffffffffffffffffffffffffffff1673ffffffffffffffffffffffffffffffffffffffff16611e3b565b101515156109a657600080fd5b826109e8600160009054906101000a900473ffffffffffffffffffffffffffffffffffffffff1673ffffffffffffffffffffffffffffffffffffffff16611ee3565b101515156109f557600080fd5b82610a37600160009054906101000a900473ffffffffffffffffffffffffffffffffffffffff1673ffffffffffffffffffffffffffffffffffffffff16611f8b565b11151515610a4457600080fd5b610a8f83600160009054906101000a900473ffffffffffffffffffffffffffffffffffffffff1673ffffffffffffffffffffffffffffffffffffffff1661203390919063ffffffff16565b610adc3384600160009054906101000a900473ffffffffffffffffffffffffffffffffffffffff1673ffffffffffffffffffffffffffffffffffffffff166122e59092919063ffffffff16565b7f080158bcec60f3dc9027ef99597d7280c562fe09366869ed88e94c46deea16bd3334604051808373ffffffffffffffffffffffffffffffffffffffff1673ffffffffffffffffffffffffffffffffffffffff1681526020018281526020019250505060405180910390a150505050505050505050505050565b6000610ba333600160009054906101000a900473ffffffffffffffffffffffffffffffffffffffff1673ffffffffffffffffffffffffffffffffffffffff166126a590919063ffffffff16565b905090565b6000610beb600160009054906101000a900473ffffffffffffffffffffffffffffffffffffffff1673ffffffffffffffffffffffffffffffffffffffff16611663565b905090565b610c3b33600160009054906101000a900473ffffffffffffffffffffffffffffffffffffffff1673ffffffffffffffffffffffffffffffffffffffff1661278590919063ffffffff16565b1515610c4657600080fd5b610c938160018060009054906101000a900473ffffffffffffffffffffffffffffffffffffffff1673ffffffffffffffffffffffffffffffffffffffff166128659092919063ffffffff16565b7f3f804ee3f07cdde086fb60b3b1407183bb984643f6369f5af570365f394ee8773382604051808373ffffffffffffffffffffffffffffffffffffffff1673ffffffffffffffffffffffffffffffffffffffff1681526020018273ffffffffffffffffffffffffffffffffffffffff1673ffffffffffffffffffffffffffffffffffffffff1681526020019250505060405180910390a150565b600160009054906101000a900473ffffffffffffffffffffffffffffffffffffffff1681565b610d9e33600160009054906101000a900473ffffffffffffffffffffffffffffffffffffffff1673ffffffffffffffffffffffffffffffffffffffff1661278590919063ffffffff16565b1515610da957600080fd5b610df481600160009054906101000a900473ffffffffffffffffffffffffffffffffffffffff1673ffffffffffffffffffffffffffffffffffffffff1661292990919063ffffffff16565b50565b610e4233600160009054906101000a900473ffffffffffffffffffffffffffffffffffffffff1673ffffffffffffffffffffffffffffffffffffffff1661278590919063ffffffff16565b1515610e4d57600080fd5b610e9881600160009054906101000a900473ffffffffffffffffffffffffffffffffffffffff1673ffffffffffffffffffffffffffffffffffffffff166129eb90919063ffffffff16565b50565b610ee633600160009054906101000a900473ffffffffffffffffffffffffffffffffffffffff1673ffffffffffffffffffffffffffffffffffffffff1661278590919063ffffffff16565b1515610ef157600080fd5b610f3d6000600160009054906101000a900473ffffffffffffffffffffffffffffffffffffffff1673ffffffffffffffffffffffffffffffffffffffff16612aad90919063ffffffff16565b565b6000809054906101000a900473ffffffffffffffffffffffffffffffffffffffff1681565b610faf33600160009054906101000a900473ffffffffffffffffffffffffffffffffffffffff1673ffffffffffffffffffffffffffffffffffffffff1661278590919063ffffffff16565b1515610fba57600080fd5b6000610ffd600160009054906101000a900473ffffffffffffffffffffffffffffffffffffffff1673ffffffffffffffffffffffffffffffffffffffff16611b59565b11151561100957600080fd5b600061104c600160009054906101000a900473ffffffffffffffffffffffffffffffffffffffff1673ffffffffffffffffffffffffffffffffffffffff16611a49565b11151561105857600080fd5b600061109b600160009054906101000a900473ffffffffffffffffffffffffffffffffffffffff1673ffffffffffffffffffffffffffffffffffffffff16611ee3565b1115156110a757600080fd5b60006110ea600160009054906101000a900473ffffffffffffffffffffffffffffffffffffffff1673ffffffffffffffffffffffffffffffffffffffff16611f8b565b1115156110f657600080fd5b6000611139600160009054906101000a900473ffffffffffffffffffffffffffffffffffffffff1673ffffffffffffffffffffffffffffffffffffffff16611ceb565b11151561114557600080fd5b6000611188600160009054906101000a900473ffffffffffffffffffffffffffffffffffffffff1673ffffffffffffffffffffffffffffffffffffffff16611c43565b11151561119457600080fd5b6111df60018060009054906101000a900473ffffffffffffffffffffffffffffffffffffffff1673ffffffffffffffffffffffffffffffffffffffff16612aad90919063ffffffff16565b565b600061122e33600160009054906101000a900473ffffffffffffffffffffffffffffffffffffffff1673ffffffffffffffffffffffffffffffffffffffff16612b7790919063ffffffff16565b905090565b61127e33600160009054906101000a900473ffffffffffffffffffffffffffffffffffffffff1673ffffffffffffffffffffffffffffffffffffffff1661278590919063ffffffff16565b151561128957600080fd5b7fb4f624e48673dc663c4fb2404bafa6c05547bc096a7a103af31ae391e5b0903981604051808273ffffffffffffffffffffffffffffffffffffffff1673ffffffffffffffffffffffffffffffffffffffff16815260200191505060405180910390a18073ffffffffffffffffffffffffffffffffffffffff16ff5b61135033600160009054906101000a900473ffffffffffffffffffffffffffffffffffffffff1673ffffffffffffffffffffffffffffffffffffffff1661278590919063ffffffff16565b151561135b57600080fd5b6113a681600160009054906101000a900473ffffffffffffffffffffffffffffffffffffffff1673ffffffffffffffffffffffffffffffffffffffff16612c5790919063ffffffff16565b50565b6114176000809054906101000a900473ffffffffffffffffffffffffffffffffffffffff1660018060009054906101000a900473ffffffffffffffffffffffffffffffffffffffff1673ffffffffffffffffffffffffffffffffffffffff166128659092919063ffffffff16565b565b61146433600160009054906101000a900473ffffffffffffffffffffffffffffffffffffffff1673ffffffffffffffffffffffffffffffffffffffff1661278590919063ffffffff16565b151561146f57600080fd5b8173ffffffffffffffffffffffffffffffffffffffff166108fc829081150290604051600060405180830381858888f193505050501580156114b5573d6000803e3d6000fd5b507f0f62c195e008cbdbf4ee7c79f1e25bc63567390e192e5ec8e9023f4de04cb24c8282604051808373ffffffffffffffffffffffffffffffffffffffff1673ffffffffffffffffffffffffffffffffffffffff1681526020018281526020019250505060405180910390a15050565b61157033600160009054906101000a900473ffffffffffffffffffffffffffffffffffffffff1673ffffffffffffffffffffffffffffffffffffffff1661278590919063ffffffff16565b151561157b57600080fd5b6115c9816000600160009054906101000a900473ffffffffffffffffffffffffffffffffffffffff1673ffffffffffffffffffffffffffffffffffffffff166128659092919063ffffffff16565b7fea01eb9a37e5d465b200f0b16e24bafb0db1a498973dbdc28c67ace2142bff7a3382604051808373ffffffffffffffffffffffffffffffffffffffff1673ffffffffffffffffffffffffffffffffffffffff1681526020018273ffffffffffffffffffffffffffffffffffffffff1673ffffffffffffffffffffffffffffffffffffffff1681526020019250505060405180910390a150565b60008173ffffffffffffffffffffffffffffffffffffffff1663a11e7f5e6040518163ffffffff167c0100000000000000000000000000000000000000000000000000000000028152600401602060405180830381600087803b1580156116c957600080fd5b505af11580156116dd573d6000803e3d6000fd5b505050506040513d60208110156116f357600080fd5b81019080805190602001909291905050509050919050565b60008273ffffffffffffffffffffffffffffffffffffffff1663b08af3dd836040518263ffffffff167c0100000000000000000000000000000000000000000000000000000000028152600401808273ffffffffffffffffffffffffffffffffffffffff1673ffffffffffffffffffffffffffffffffffffffff168152602001915050602060405180830381600087803b1580156117a857600080fd5b505af11580156117bc573d6000803e3d6000fd5b505050506040513d60208110156117d257600080fd5b8101908080519060200190929190505050905092915050565b8273ffffffffffffffffffffffffffffffffffffffff1663b50f283283836040518363ffffffff167c0100000000000000000000000000000000000000000000000000000000028152600401808373ffffffffffffffffffffffffffffffffffffffff1673ffffffffffffffffffffffffffffffffffffffff1681526020018260ff1660ff16815260200192505050600060405180830381600087803b15801561189457600080fd5b505af11580156118a8573d6000803e3d6000fd5b505050507f4a191ddc006770792ce2b50a4718ddddf0eaa843bcb368f1625f4f2890f8a5788282604051808373ffffffffffffffffffffffffffffffffffffffff1673ffffffffffffffffffffffffffffffffffffffff1681526020018260ff1660ff1681526020019250505060405180910390a1505050565b6000806000806000808773ffffffffffffffffffffffffffffffffffffffff1663b4a357a2886040518263ffffffff167c0100000000000000000000000000000000000000000000000000000000028152600401808273ffffffffffffffffffffffffffffffffffffffff1673ffffffffffffffffffffffffffffffffffffffff16815260200191505060c060405180830381600087803b1580156119c657600080fd5b505af11580156119da573d6000803e3d6000fd5b505050506040513d60c08110156119f057600080fd5b810190808051906020019092919080519060200190929190805190602001909291908051906020019092919080519060200190929190805190602001909291905050509550955095509550955095509295509295509295565b60008173ffffffffffffffffffffffffffffffffffffffff166399a7e9db6040518163ffffffff167c0100000000000000000000000000000000000000000000000000000000028152600401602060405180830381600087803b158015611aaf57600080fd5b505af1158015611ac3573d6000803e3d6000fd5b505050506040513d6020811015611ad957600080fd5b81019080805190602001909291905050509050919050565b6000806000841415611b065760009150611b28565b8284029050828482811515611b1757fe5b04141515611b2457600080fd5b8091505b5092915050565b600080600083111515611b4157600080fd5b8284811515611b4c57fe5b0490508091505092915050565b60008173ffffffffffffffffffffffffffffffffffffffff166371c1dde56040518163ffffffff167c0100000000000000000000000000000000000000000000000000000000028152600401602060405180830381600087803b158015611bbf57600080fd5b505af1158015611bd3573d6000803e3d6000fd5b505050506040513d6020811015611be957600080fd5b81019080805190602001909291905050509050919050565b6000808284019050838110151515611c1857600080fd5b8091505092915050565b600080838311151515611c3457600080fd5b82840390508091505092915050565b60008173ffffffffffffffffffffffffffffffffffffffff1663b22e6fee6040518163ffffffff167c0100000000000000000000000000000000000000000000000000000000028152600401602060405180830381600087803b158015611ca957600080fd5b505af1158015611cbd573d6000803e3d6000fd5b505050506040513d6020811015611cd357600080fd5b81019080805190602001909291905050509050919050565b60008173ffffffffffffffffffffffffffffffffffffffff1663681b33146040518163ffffffff167c0100000000000000000000000000000000000000000000000000000000028152600401602060405180830381600087803b158015611d5157600080fd5b505af1158015611d65573d6000803e3d6000fd5b505050506040513d6020811015611d7b57600080fd5b81019080805190602001909291905050509050919050565b60008173ffffffffffffffffffffffffffffffffffffffff166373a29b5e6040518163ffffffff167c0100000000000000000000000000000000000000000000000000000000028152600401602060405180830381600087803b158015611df957600080fd5b505af1158015611e0d573d6000803e3d6000fd5b505050506040513d6020811015611e2357600080fd5b81019080805190602001909291905050509050919050565b60008173ffffffffffffffffffffffffffffffffffffffff1663037410406040518163ffffffff167c0100000000000000000000000000000000000000000000000000000000028152600401602060405180830381600087803b158015611ea157600080fd5b505af1158015611eb5573d6000803e3d6000fd5b505050506040513d6020811015611ecb57600080fd5b81019080805190602001909291905050509050919050565b60008173ffffffffffffffffffffffffffffffffffffffff16635e3939736040518163ffffffff167c0100000000000000000000000000000000000000000000000000000000028152600401602060405180830381600087803b158015611f4957600080fd5b505af1158015611f5d573d6000803e3d6000fd5b505050506040513d6020811015611f7357600080fd5b81019080805190602001909291905050509050919050565b60008173ffffffffffffffffffffffffffffffffffffffff1663f105c9816040518163ffffffff167c0100000000000000000000000000000000000000000000000000000000028152600401602060405180830381600087803b158015611ff157600080fd5b505af1158015612005573d6000803e3d6000fd5b505050506040513d602081101561201b57600080fd5b81019080805190602001909291905050509050919050565b6000818373ffffffffffffffffffffffffffffffffffffffff166373a29b5e6040518163ffffffff167c0100000000000000000000000000000000000000000000000000000000028152600401602060405180830381600087803b15801561209a57600080fd5b505af11580156120ae573d6000803e3d6000fd5b505050506040513d60208110156120c457600080fd5b81019080805190602001909291905050500190508273ffffffffffffffffffffffffffffffffffffffff166373a29b5e6040518163ffffffff167c0100000000000000000000000000000000000000000000000000000000028152600401602060405180830381600087803b15801561213c57600080fd5b505af1158015612150573d6000803e3d6000fd5b505050506040513d602081101561216657600080fd5b8101908080519060200190929190505050811015151561218257fe5b8273ffffffffffffffffffffffffffffffffffffffff1663084b8f8d838573ffffffffffffffffffffffffffffffffffffffff166373a29b5e6040518163ffffffff167c0100000000000000000000000000000000000000000000000000000000028152600401602060405180830381600087803b15801561220357600080fd5b505af1158015612217573d6000803e3d6000fd5b505050506040513d602081101561222d57600080fd5b8101908080519060200190929190505050016040518263ffffffff167c010000000000000000000000000000000000000000000000000000000002815260040180828152602001915050600060405180830381600087803b15801561229157600080fd5b505af11580156122a5573d6000803e3d6000fd5b505050507ff16be055dcd8bd7b5d0f1e659a4014b4a2873a5206124e27f4af6201cc3ac5c6826040518082815260200191505060405180910390a1505050565b6000818473ffffffffffffffffffffffffffffffffffffffff1663083baf15856040518263ffffffff167c0100000000000000000000000000000000000000000000000000000000028152600401808273ffffffffffffffffffffffffffffffffffffffff1673ffffffffffffffffffffffffffffffffffffffff168152602001915050602060405180830381600087803b15801561238357600080fd5b505af1158015612397573d6000803e3d6000fd5b505050506040513d60208110156123ad57600080fd5b81019080805190602001909291905050500190508373ffffffffffffffffffffffffffffffffffffffff1663083baf15846040518263ffffffff167c0100000000000000000000000000000000000000000000000000000000028152600401808273ffffffffffffffffffffffffffffffffffffffff1673ffffffffffffffffffffffffffffffffffffffff168152602001915050602060405180830381600087803b15801561245c57600080fd5b505af1158015612470573d6000803e3d6000fd5b505050506040513d602081101561248657600080fd5b810190808051906020019092919050505081101515156124a257fe5b8373ffffffffffffffffffffffffffffffffffffffff16638e79dc9184848773ffffffffffffffffffffffffffffffffffffffff1663083baf15886040518263ffffffff167c0100000000000000000000000000000000000000000000000000000000028152600401808273ffffffffffffffffffffffffffffffffffffffff1673ffffffffffffffffffffffffffffffffffffffff168152602001915050602060405180830381600087803b15801561255b57600080fd5b505af115801561256f573d6000803e3d6000fd5b505050506040513d602081101561258557600080fd5b8101908080519060200190929190505050016040518363ffffffff167c0100000000000000000000000000000000000000000000000000000000028152600401808373ffffffffffffffffffffffffffffffffffffffff1673ffffffffffffffffffffffffffffffffffffffff16815260200182815260200192505050600060405180830381600087803b15801561261c57600080fd5b505af1158015612630573d6000803e3d6000fd5b505050507f65c9bb2fea93972ca955ef0d8fbe9911e1493f8b294ddd86564cc43d2863e1a88383604051808373ffffffffffffffffffffffffffffffffffffffff1673ffffffffffffffffffffffffffffffffffffffff1681526020018281526020019250505060405180910390a150505050565b60008273ffffffffffffffffffffffffffffffffffffffff1663083baf15836040518263ffffffff167c0100000000000000000000000000000000000000000000000000000000028152600401808273ffffffffffffffffffffffffffffffffffffffff1673ffffffffffffffffffffffffffffffffffffffff168152602001915050602060405180830381600087803b15801561274257600080fd5b505af1158015612756573d6000803e3d6000fd5b505050506040513d602081101561276c57600080fd5b8101908080519060200190929190505050905092915050565b60008273ffffffffffffffffffffffffffffffffffffffff1663f28e59c9836040518263ffffffff167c0100000000000000000000000000000000000000000000000000000000028152600401808273ffffffffffffffffffffffffffffffffffffffff1673ffffffffffffffffffffffffffffffffffffffff168152602001915050602060405180830381600087803b15801561282257600080fd5b505af1158015612836573d6000803e3d6000fd5b505050506040513d602081101561284c57600080fd5b8101908080519060200190929190505050905092915050565b8273ffffffffffffffffffffffffffffffffffffffff1663314ec2e583836040518363ffffffff167c0100000000000000000000000000000000000000000000000000000000028152600401808373ffffffffffffffffffffffffffffffffffffffff1673ffffffffffffffffffffffffffffffffffffffff1681526020018215151515815260200192505050600060405180830381600087803b15801561290c57600080fd5b505af1158015612920573d6000803e3d6000fd5b50505050505050565b8173ffffffffffffffffffffffffffffffffffffffff1663963c1121826040518263ffffffff167c010000000000000000000000000000000000000000000000000000000002815260040180828152602001915050600060405180830381600087803b15801561299857600080fd5b505af11580156129ac573d6000803e3d6000fd5b505050507f3a688f2cf53390ff3b48b0af48711fac82a2de7569b2a803e3ac601368f6d49f816040518082815260200191505060405180910390a15050565b8173ffffffffffffffffffffffffffffffffffffffff16637d1f561b826040518263ffffffff167c010000000000000000000000000000000000000000000000000000000002815260040180828152602001915050600060405180830381600087803b158015612a5a57600080fd5b505af1158015612a6e573d6000803e3d6000fd5b505050507fec02904c672794f727d786dcfbbc75b0cf257397aa5b7999ebb91c44ec10903f816040518082815260200191505060405180910390a15050565b8173ffffffffffffffffffffffffffffffffffffffff16636fcaea0c826040518263ffffffff167c01000000000000000000000000000000000000000000000000000000000281526004018082151515158152602001915050600060405180830381600087803b158015612b2057600080fd5b505af1158015612b34573d6000803e3d6000fd5b505050507f744ffdc9c8d8f3e3db9e76f3bf530809b5fe5ac2187fa023fc5c1e1b0d04b72381604051808215151515815260200191505060405180910390a15050565b60008273ffffffffffffffffffffffffffffffffffffffff166310f5f1b3836040518263ffffffff167c0100000000000000000000000000000000000000000000000000000000028152600401808273ffffffffffffffffffffffffffffffffffffffff1673ffffffffffffffffffffffffffffffffffffffff168152602001915050602060405180830381600087803b158015612c1457600080fd5b505af1158015612c28573d6000803e3d6000fd5b505050506040513d6020811015612c3e57600080fd5b8101908080519060200190929190505050905092915050565b8173ffffffffffffffffffffffffffffffffffffffff166364968f58826040518263ffffffff167c010000000000000000000000000000000000000000000000000000000002815260040180828152602001915050600060405180830381600087803b158015612cc657600080fd5b505af1158015612cda573d6000803e3d6000fd5b505050507fab61a6379e28d8d9327141d25ba3c27b6be1a7f8345b5ed4c4ff2d89908b461f816040518082815260200191505060405180910390a15050565b60c060405190810160405280600073ffffffffffffffffffffffffffffffffffffffff168152602001600081526020016000815260200160008152602001600015158152602001600060ff16815250905600a165627a7a72305820586ff2ce6944cb047401a6227022b246d929cc53923be7fc640a6826eb67118a0029",
  "source": "pragma solidity 0.4.24;\r\n\r\nimport \"./safe_math_lib.sol\";\r\nimport \"./topl_database_lib.sol\";\r\n\r\ncontract iconiq_presale {\r\n\r\n    // libraries\r\n    using topl_database_lib for address;\r\n    using SafeMath for uint256;\r\n\r\n    // contract level vars\r\n    address public owner;\r\n    address public db;\r\n\r\n    // helpful data structs\r\n    struct participant {\r\n        address eth_address; // your eth address\r\n        uint256 topl_address; // your topl address\r\n        uint256 arbits; // the amount of a arbits you have\r\n        uint256 num_of_pro_rata_tokens_alloted;\r\n        bool arbits_kyc_whitelist; // if you pass arbits level kyc you get this\r\n        uint8 num_of_uses;\r\n    }\r\n\r\n    // permissions\r\n    constructor(address __db) public {\r\n        db = __db;\r\n        owner = msg.sender;\r\n    }\r\n\r\n    function owner_linkage() public { // must be called after the sale contract has been linked to the database contract via database's add master function\r\n        db.set_sale_owner(owner, true);\r\n    }\r\n\r\n    modifier only_owner() {\r\n        require(db.get_sale_owner(msg.sender));\r\n        _;\r\n    }\r\n\r\n    function add_owner(address __subject) public only_owner {\r\n        db.set_sale_owner(__subject, true);\r\n        emit e_add_owner(msg.sender, __subject);\r\n    }\r\n\r\n    function remove_owner(address __subject) public only_owner {\r\n        db.set_sale_owner(__subject, false);\r\n        emit e_remove_owner(msg.sender, __subject);\r\n    }\r\n\r\n    // functionality\r\n    function participate_in_arbits_presale_crypto() public payable presale_open use_count {\r\n        /////////////////////////////////////////////////////////////////////\r\n                                                                           //\r\n        (                                                                  //\r\n            address p1,                                                    //\r\n            uint256 p2,                                                    // LOAD\r\n            uint256 p3,                                                    // PARTICIPANT\r\n            uint256 p4,                                                    // DATA\r\n            bool p5,                                                       // FROM\r\n            uint8 p6                                                       // DATABASE\r\n        ) = db.get_participant(msg.sender);                                //\r\n        participant memory subject = participant(p1, p2, p3, p4, p5, p6);  //\r\n                                                                           //\r\n        /////////////////////////////////////////////////////////////////////\r\n\r\n        // Note: The num_of_pro_rata_tokens_alloted struct field of iconiq members is set by a contract\r\n        // connected to the database contract that is outside the scope of this audit.\r\n\r\n        ///////////////////////////////////////////////////////\r\n                                                             // Iconiq\r\n        require(subject.num_of_pro_rata_tokens_alloted > 0); // Member\r\n                                                             // Check\r\n        ///////////////////////////////////////////////////////\r\n\r\n        /////////////////////////////////////////////////////////////////////////////////////////////////////////////////////////////////////\r\n                                                                                                                                           //\r\n        uint256 subject_tokens_to_add_at_iconiq_price = msg.value.mul(db.get_presale_iconiq_arbits_per_ether()).div(1 ether);  //\r\n        uint256 subject_tokens_to_add_at_reg_price = msg.value.mul(db.get_presale_arbits_per_ether()).div(1 ether);            //\r\n        uint256 amount_of_pro_rata_tokens_subject_can_get = subject.num_of_pro_rata_tokens_alloted;                                        //\r\n        uint256 subject_tokens_to_add = 0;                                                                                                 //\r\n        if (amount_of_pro_rata_tokens_subject_can_get >= subject.arbits.add(subject_tokens_to_add_at_iconiq_price)) {                      //\r\n            subject_tokens_to_add = subject_tokens_to_add_at_iconiq_price;  // everything at ICONIQ rate                                   //\r\n        } else {                                                                                                                           //\r\n            if (subject.arbits < amount_of_pro_rata_tokens_subject_can_get) {                                                              //\r\n                uint256 delta = amount_of_pro_rata_tokens_subject_can_get.sub(subject.arbits);  // some at ICONIQ rate and some not        //\r\n                subject_tokens_to_add = delta.add(                                              //                                         //\r\n                    subject_tokens_to_add_at_iconiq_price                                       //                                         // Arbits\r\n                    .sub(delta)                                                                 //                                         // Purchased\r\n                    .mul(db.get_presale_arbits_per_ether())                                     //                                         // Calculation\r\n                    .div(db.get_presale_iconiq_arbits_per_ether())                              //                                         //\r\n                );                                                                              //                                         //\r\n            } else {                                                                                                                       //\r\n                subject_tokens_to_add = subject_tokens_to_add_at_reg_price;  // nothing at ICONIQ rate                                     //\r\n            }                                                                                                                              //\r\n        }                                                                                                                                  //\r\n        if (subject.arbits_kyc_whitelist) {                                                                                                //\r\n            subject_tokens_to_add = subject_tokens_to_add         // pre-kyc bonus                                                         //\r\n                .mul(db.get_pre_kyc_iconiq_bonus_numerator())     //                                                                       //\r\n                .div(db.get_pre_kyc_iconiq_bonus_denominator());  //                                                                       //\r\n        }                                                                                                                                  //\r\n                                                                                                                                           //\r\n        /////////////////////////////////////////////////////////////////////////////////////////////////////////////////////////////////////\r\n\r\n        // Note: users must send ether in amounts that are evenly divide tokens_per_ether.\r\n        // Ex: If tokens_per_ether = 4 and a user sends .9 ether they will receive 3 tokens and forfeit .15 ether.\r\n        // The correct interaction would be to send some increment of .25 ether.\r\n\r\n        //////////////////////////////////////////////////////////////////////////////////////////////////////\r\n                                                                                                            //\r\n        require(db.get_presale_arbits_total() >= db.get_presale_arbits_sold().add(subject_tokens_to_add));  // Sale\r\n        require(db.get_arbits_max_contribution() >= subject_tokens_to_add); // max                  // Limit\r\n        require(db.get_arbits_min_contribution() <= subject_tokens_to_add); // min                  // Checks\r\n                                                                                                            //\r\n        //////////////////////////////////////////////////////////////////////////////////////////////////////\r\n\r\n        /////////////////////////////////////////////////////////////////////////////\r\n                                                                                   //\r\n        db.add_presale_arbits_sold(subject_tokens_to_add); // update sold counter  // Update\r\n        db.add_arbits(msg.sender, subject_tokens_to_add); // update arbits         // Database\r\n                                                                                   //\r\n        /////////////////////////////////////////////////////////////////////////////\r\n\r\n        ///////////////////////////////////////////////////////////////////////\r\n                                                                             //\r\n        emit e_participate_in_arbits_presale_crypto(msg.sender, msg.value);  // Event\r\n                                                                             //\r\n        ///////////////////////////////////////////////////////////////////////\r\n    }\r\n\r\n    function() public payable {\r\n        participate_in_arbits_presale_crypto(); // allows users to participate without an explicit function call\r\n        emit e_fallback(msg.sender, msg.value);\r\n    }\r\n\r\n    // owner withdraw\r\n    function kill_and_withdraw(address withdraw_to) public only_owner {\r\n        emit e_kill_and_withdraw(withdraw_to);\r\n        selfdestruct(withdraw_to);\r\n    }\r\n\r\n    function withdraw_some_amount(address withdraw_to, uint256 amount) public only_owner {\r\n        withdraw_to.transfer(amount); // amount in wei, throws if error\r\n        emit e_withdraw_some_amount(withdraw_to, amount);\r\n    }\r\n\r\n    // sale settings\r\n    function set_sale_open() public only_owner {\r\n        require(db.get_presale_arbits_per_ether() > 0);\r\n        require(db.get_presale_iconiq_arbits_per_ether() > 0);\r\n        require(db.get_arbits_max_contribution() > 0);\r\n        require(db.get_arbits_min_contribution() > 0);\r\n        require(db.get_pre_kyc_iconiq_bonus_numerator() > 0);\r\n        require(db.get_pre_kyc_iconiq_bonus_denominator() > 0);\r\n        db.set_iconiq_presale_open(true);\r\n    }\r\n\r\n    function set_sale_closed() public only_owner {\r\n        db.set_iconiq_presale_open(false);\r\n    }\r\n\r\n    function set_iconiq_arbits_per_ether(uint256 _v) public only_owner {\r\n        db.set_presale_iconiq_arbits_per_ether(_v); // this is the pro rata rate\r\n    }\r\n\r\n    function set_iconiq_pre_kyc_bonus_numerator(uint256 _v) public only_owner {\r\n        db.set_pre_kyc_iconiq_bonus_numerator(_v);\r\n    }\r\n\r\n    function set_iconiq_pre_kyc_bonus_denominator(uint256 _v) public only_owner {\r\n        db.set_pre_kyc_iconiq_bonus_denominator(_v);\r\n    }\r\n\r\n    // general modifiers\r\n    modifier presale_open() {\r\n        require(db.get_iconiq_presale_open());\r\n        _;\r\n    }\r\n\r\n    modifier use_count() {\r\n        uint8 uses = db.get_num_of_uses(msg.sender);\r\n        require(uses < 5);\r\n        db.set_num_of_uses(msg.sender, uses + 1);\r\n        _;\r\n    }\r\n\r\n    // helpers\r\n    function is_presale_open() public view returns(bool) {\r\n        return db.get_iconiq_presale_open();\r\n    }\r\n\r\n    function am_i_on_the_whitelist() public view returns(bool) {\r\n        return db.get_arbits_whitelist(msg.sender);\r\n    }\r\n\r\n    function how_many_arbits_do_i_have() public view returns(uint256) {\r\n        return db.get_arbits(msg.sender);\r\n    }\r\n\r\n    // events\r\n    //\r\n    // All storage calls are logged via events emitted in the library functions.\r\n    // Because web3 bugs out when when libraries call events that aren't defined in\r\n    // the parent contract. We redefine them here.\r\n    //\r\n    // contract level events\r\n    event e_add_owner(address, address); // adder, addie <-------- These are words now!\r\n    event e_remove_owner(address, address); // remover, removie <_/\r\n    event e_participate_in_arbits_presale_crypto(address, uint256); // msg.sender, msg.value\r\n    event e_fallback(address, uint256); // msg.sender, msg.value (used to gather data on what %\r\n    // of people just send ether vs sending a function call\r\n    event e_kill_and_withdraw(address); // person that just took all our money\r\n    event e_withdraw_some_amount(address, uint256); // withdrawal address, amount withdrawn\r\n}\r\n",
  "sourcePath": "C:\\git\\Midgard\\contracts\\iconiq_presale.sol",
  "compiler": {
    "name": "solc",
    "version": "0.4.24+commit.e67f0147.Emscripten.clang"
  },
  "schemaVersion": "2.0.1",
  "updatedAt": "2018-10-06T07:24:23.408Z"
}