{
  "contractName": "iconiq_data_pipe",
  "abi": [
    {
      "constant": true,
      "inputs": [],
      "name": "db",
      "outputs": [
        {
          "name": "",
          "type": "address"
        }
      ],
      "payable": false,
      "stateMutability": "view",
      "type": "function"
    },
    {
      "constant": true,
      "inputs": [],
      "name": "owner",
      "outputs": [
        {
          "name": "",
          "type": "address"
        }
      ],
      "payable": false,
      "stateMutability": "view",
      "type": "function"
    },
    {
      "inputs": [
        {
          "name": "__db",
          "type": "address"
        }
      ],
      "payable": false,
      "stateMutability": "nonpayable",
      "type": "constructor"
    },
    {
      "constant": false,
      "inputs": [],
      "name": "owner_linkage",
      "outputs": [],
      "payable": false,
      "stateMutability": "nonpayable",
      "type": "function"
    },
    {
      "constant": false,
      "inputs": [
        {
          "name": "_a",
          "type": "address"
        },
        {
          "name": "_v",
          "type": "uint256"
        }
      ],
      "name": "set_iconiq_token_amount",
      "outputs": [],
      "payable": false,
      "stateMutability": "nonpayable",
      "type": "function"
    }
  ],
  "bytecode": "0x608060405234801561001057600080fd5b5060405160208061069983398101806040528101908080519060200190929190505050806000806101000a81548173ffffffffffffffffffffffffffffffffffffffff021916908373ffffffffffffffffffffffffffffffffffffffff16021790555033600160006101000a81548173ffffffffffffffffffffffffffffffffffffffff021916908373ffffffffffffffffffffffffffffffffffffffff160217905550506105d5806100c46000396000f300608060405260043610610062576000357c0100000000000000000000000000000000000000000000000000000000900463ffffffff1680634d655aff146100675780638da5cb5b146100be578063d7d2315514610115578063f5b41aaa1461012c575b600080fd5b34801561007357600080fd5b5061007c610179565b604051808273ffffffffffffffffffffffffffffffffffffffff1673ffffffffffffffffffffffffffffffffffffffff16815260200191505060405180910390f35b3480156100ca57600080fd5b506100d361019e565b604051808273ffffffffffffffffffffffffffffffffffffffff1673ffffffffffffffffffffffffffffffffffffffff16815260200191505060405180910390f35b34801561012157600080fd5b5061012a6101c4565b005b34801561013857600080fd5b50610177600480360381019080803573ffffffffffffffffffffffffffffffffffffffff16906020019092919080359060200190929190505050610235565b005b6000809054906101000a900473ffffffffffffffffffffffffffffffffffffffff1681565b600160009054906101000a900473ffffffffffffffffffffffffffffffffffffffff1681565b610233600160009054906101000a900473ffffffffffffffffffffffffffffffffffffffff1660016000809054906101000a900473ffffffffffffffffffffffffffffffffffffffff1673ffffffffffffffffffffffffffffffffffffffff166102da9092919063ffffffff16565b565b61027f336000809054906101000a900473ffffffffffffffffffffffffffffffffffffffff1673ffffffffffffffffffffffffffffffffffffffff1661039e90919063ffffffff16565b151561028a57600080fd5b6102d682826000809054906101000a900473ffffffffffffffffffffffffffffffffffffffff1673ffffffffffffffffffffffffffffffffffffffff1661047e9092919063ffffffff16565b5050565b8273ffffffffffffffffffffffffffffffffffffffff1663314ec2e583836040518363ffffffff167c0100000000000000000000000000000000000000000000000000000000028152600401808373ffffffffffffffffffffffffffffffffffffffff1673ffffffffffffffffffffffffffffffffffffffff1681526020018215151515815260200192505050600060405180830381600087803b15801561038157600080fd5b505af1158015610395573d6000803e3d6000fd5b50505050505050565b60008273ffffffffffffffffffffffffffffffffffffffff1663f28e59c9836040518263ffffffff167c0100000000000000000000000000000000000000000000000000000000028152600401808273ffffffffffffffffffffffffffffffffffffffff1673ffffffffffffffffffffffffffffffffffffffff168152602001915050602060405180830381600087803b15801561043b57600080fd5b505af115801561044f573d6000803e3d6000fd5b505050506040513d602081101561046557600080fd5b8101908080519060200190929190505050905092915050565b8273ffffffffffffffffffffffffffffffffffffffff166359a8307483836040518363ffffffff167c0100000000000000000000000000000000000000000000000000000000028152600401808373ffffffffffffffffffffffffffffffffffffffff1673ffffffffffffffffffffffffffffffffffffffff16815260200182815260200192505050600060405180830381600087803b15801561052157600080fd5b505af1158015610535573d6000803e3d6000fd5b505050507f6d40b99bcc49a6811e130f3b186a67de0fd50fc6c3a0185924df90b979f408508282604051808373ffffffffffffffffffffffffffffffffffffffff1673ffffffffffffffffffffffffffffffffffffffff1681526020018281526020019250505060405180910390a15050505600a165627a7a72305820cec01f07399a51289e22c6d91d632f37a4d332f338c8f85a8fc1cac899e180820029",
  "source": "pragma solidity ^0.4.24;\r\n\r\nimport \"./safe_math_lib.sol\";\r\nimport \"./topl_database_lib.sol\";\r\n\r\ncontract iconiq_data_pipe {\r\n\r\n    using topl_database_lib for address;\r\n    using SafeMath for uint256;\r\n\r\n    address public db;\r\n    address public owner;\r\n\r\n    constructor(address __db) public {\r\n        db = __db;\r\n        owner = msg.sender;\r\n    }\r\n\r\n    function owner_linkage() public { // must be called after the sale contract has been linked to the database contract via database's add master function\r\n        db.set_sale_owner(owner, true);\r\n    }\r\n\r\n    modifier only_owner() {\r\n        require(db.get_sale_owner(msg.sender));\r\n        _;\r\n    }\r\n\r\n    function set_iconiq_token_amount(address _a, uint256 _v) public only_owner {\r\n        db.set_iconiq_tokens(_a, _v);\r\n    }\r\n}\r\n",
  "sourcePath": "C:\\git\\Midgard\\contracts\\iconiq_data_pipe.sol",
  "compiler": {
    "name": "solc",
    "version": "0.4.24+commit.e67f0147.Emscripten.clang"
  },
  "schemaVersion": "2.0.1",
  "updatedAt": "2018-10-10T09:49:54.458Z"
}