{
  "contractName": "arbits_presale",
  "abi": [
    {
      "constant": true,
      "inputs": [],
      "name": "db",
      "outputs": [
        {
          "name": "",
          "type": "address"
        }
      ],
      "payable": false,
      "stateMutability": "view",
      "type": "function"
    },
    {
      "constant": true,
      "inputs": [],
      "name": "owner",
      "outputs": [
        {
          "name": "",
          "type": "address"
        }
      ],
      "payable": false,
      "stateMutability": "view",
      "type": "function"
    },
    {
      "inputs": [
        {
          "name": "__db",
          "type": "address"
        }
      ],
      "payable": false,
      "stateMutability": "nonpayable",
      "type": "constructor"
    },
    {
      "payable": true,
      "stateMutability": "payable",
      "type": "fallback"
    },
    {
      "anonymous": false,
      "inputs": [
        {
          "indexed": false,
          "name": "addres1",
          "type": "address"
        },
        {
          "indexed": false,
          "name": "address2",
          "type": "address"
        }
      ],
      "name": "e_add_owner",
      "type": "event"
    },
    {
      "anonymous": false,
      "inputs": [
        {
          "indexed": false,
          "name": "addres1",
          "type": "address"
        },
        {
          "indexed": false,
          "name": "address2",
          "type": "address"
        }
      ],
      "name": "e_remove_owner",
      "type": "event"
    },
    {
      "anonymous": false,
      "inputs": [
        {
          "indexed": false,
          "name": "",
          "type": "address"
        },
        {
          "indexed": false,
          "name": "",
          "type": "address"
        }
      ],
      "name": "e_add_to_whitelist",
      "type": "event"
    },
    {
      "anonymous": false,
      "inputs": [
        {
          "indexed": false,
          "name": "",
          "type": "address"
        },
        {
          "indexed": false,
          "name": "",
          "type": "address"
        }
      ],
      "name": "e_remove_from_whitelist",
      "type": "event"
    },
    {
      "anonymous": false,
      "inputs": [
        {
          "indexed": false,
          "name": "",
          "type": "address"
        },
        {
          "indexed": false,
          "name": "",
          "type": "uint256"
        }
      ],
      "name": "e_participate_in_arbits_presale_fiat",
      "type": "event"
    },
    {
      "anonymous": false,
      "inputs": [
        {
          "indexed": false,
          "name": "",
          "type": "address"
        },
        {
          "indexed": false,
          "name": "",
          "type": "uint256"
        }
      ],
      "name": "e_participate_in_arbits_presale_crypto",
      "type": "event"
    },
    {
      "anonymous": false,
      "inputs": [
        {
          "indexed": false,
          "name": "",
          "type": "address"
        },
        {
          "indexed": false,
          "name": "",
          "type": "uint256"
        }
      ],
      "name": "e_fallback",
      "type": "event"
    },
    {
      "anonymous": false,
      "inputs": [
        {
          "indexed": false,
          "name": "",
          "type": "address"
        }
      ],
      "name": "e_kill_and_withdraw",
      "type": "event"
    },
    {
      "anonymous": false,
      "inputs": [
        {
          "indexed": false,
          "name": "",
          "type": "address"
        },
        {
          "indexed": false,
          "name": "",
          "type": "uint256"
        }
      ],
      "name": "e_withdraw_some_amount",
      "type": "event"
    },
    {
      "constant": false,
      "inputs": [],
      "name": "owner_linkage",
      "outputs": [],
      "payable": false,
      "stateMutability": "nonpayable",
      "type": "function"
    },
    {
      "constant": false,
      "inputs": [
        {
          "name": "__subject",
          "type": "address"
        }
      ],
      "name": "add_owner",
      "outputs": [],
      "payable": false,
      "stateMutability": "nonpayable",
      "type": "function"
    },
    {
      "constant": false,
      "inputs": [
        {
          "name": "__subject",
          "type": "address"
        }
      ],
      "name": "remove_owner",
      "outputs": [],
      "payable": false,
      "stateMutability": "nonpayable",
      "type": "function"
    },
    {
      "constant": false,
      "inputs": [],
      "name": "participate_in_arbits_presale_crypto",
      "outputs": [],
      "payable": true,
      "stateMutability": "payable",
      "type": "function"
    },
    {
      "constant": false,
      "inputs": [
        {
          "name": "_a",
          "type": "address"
        },
        {
          "name": "_t",
          "type": "uint256"
        }
      ],
      "name": "participate_in_arbits_presale_fiat",
      "outputs": [],
      "payable": false,
      "stateMutability": "nonpayable",
      "type": "function"
    },
    {
      "constant": false,
      "inputs": [
        {
          "name": "withdraw_to",
          "type": "address"
        }
      ],
      "name": "kill_and_withdraw",
      "outputs": [],
      "payable": false,
      "stateMutability": "nonpayable",
      "type": "function"
    },
    {
      "constant": false,
      "inputs": [
        {
          "name": "withdraw_to",
          "type": "address"
        },
        {
          "name": "amount",
          "type": "uint256"
        }
      ],
      "name": "withdraw_some_amount",
      "outputs": [],
      "payable": false,
      "stateMutability": "nonpayable",
      "type": "function"
    },
    {
      "constant": false,
      "inputs": [],
      "name": "set_sale_open",
      "outputs": [],
      "payable": false,
      "stateMutability": "nonpayable",
      "type": "function"
    },
    {
      "constant": false,
      "inputs": [],
      "name": "set_sale_closed",
      "outputs": [],
      "payable": false,
      "stateMutability": "nonpayable",
      "type": "function"
    },
    {
      "constant": false,
      "inputs": [
        {
          "name": "_v",
          "type": "uint256"
        }
      ],
      "name": "set_tokens_per_ether",
      "outputs": [],
      "payable": false,
      "stateMutability": "nonpayable",
      "type": "function"
    },
    {
      "constant": false,
      "inputs": [
        {
          "name": "_v",
          "type": "uint256"
        }
      ],
      "name": "set_pre_kyc_bonus_numerator",
      "outputs": [],
      "payable": false,
      "stateMutability": "nonpayable",
      "type": "function"
    },
    {
      "constant": false,
      "inputs": [
        {
          "name": "_v",
          "type": "uint256"
        }
      ],
      "name": "set_pre_kyc_bonus_denominator",
      "outputs": [],
      "payable": false,
      "stateMutability": "nonpayable",
      "type": "function"
    },
    {
      "constant": false,
      "inputs": [
        {
          "name": "_a",
          "type": "address"
        }
      ],
      "name": "add_to_whitelist",
      "outputs": [],
      "payable": false,
      "stateMutability": "nonpayable",
      "type": "function"
    },
    {
      "constant": false,
      "inputs": [
        {
          "name": "_a",
          "type": "address"
        }
      ],
      "name": "remove_from_whitelist",
      "outputs": [],
      "payable": false,
      "stateMutability": "nonpayable",
      "type": "function"
    },
    {
      "constant": false,
      "inputs": [
        {
          "name": "_v",
          "type": "uint256"
        }
      ],
      "name": "set_max_contribution",
      "outputs": [],
      "payable": false,
      "stateMutability": "nonpayable",
      "type": "function"
    },
    {
      "constant": false,
      "inputs": [
        {
          "name": "_v",
          "type": "uint256"
        }
      ],
      "name": "set_min_contribution",
      "outputs": [],
      "payable": false,
      "stateMutability": "nonpayable",
      "type": "function"
    },
    {
      "constant": false,
      "inputs": [
        {
          "name": "_v",
          "type": "uint256"
        }
      ],
      "name": "set_tokens_total",
      "outputs": [],
      "payable": false,
      "stateMutability": "nonpayable",
      "type": "function"
    },
    {
      "constant": false,
      "inputs": [
        {
          "name": "_v",
          "type": "uint256"
        }
      ],
      "name": "set_tokens_sold",
      "outputs": [],
      "payable": false,
      "stateMutability": "nonpayable",
      "type": "function"
    },
    {
      "constant": true,
      "inputs": [],
      "name": "is_presale_open",
      "outputs": [
        {
          "name": "",
          "type": "bool"
        }
      ],
      "payable": false,
      "stateMutability": "view",
      "type": "function"
    },
    {
      "constant": true,
      "inputs": [],
      "name": "am_i_on_the_whitelist",
      "outputs": [
        {
          "name": "",
          "type": "bool"
        }
      ],
      "payable": false,
      "stateMutability": "view",
      "type": "function"
    },
    {
      "constant": true,
      "inputs": [],
      "name": "how_many_arbits_do_i_have",
      "outputs": [
        {
          "name": "",
          "type": "uint256"
        }
      ],
      "payable": false,
      "stateMutability": "view",
      "type": "function"
    }
  ],
  "bytecode": "0x608060405234801561001057600080fd5b506040516020806138028339810180604052810190808051906020019092919050505080600160006101000a81548173ffffffffffffffffffffffffffffffffffffffff021916908373ffffffffffffffffffffffffffffffffffffffff160217905550336000806101000a81548173ffffffffffffffffffffffffffffffffffffffff021916908373ffffffffffffffffffffffffffffffffffffffff1602179055505061373e806100c46000396000f300608060405260043610610133576000357c0100000000000000000000000000000000000000000000000000000000900463ffffffff1680631fe08e28146101a85780632abaca23146101d35780633782cae21461022057806347c3ebf31461024d5780634a75e7411461027c5780634d655aff146102bf5780636a63606c146103165780637841a530146103435780638076bd41146103705780638da5cb5b1461038757806390fad1e6146103de5780639249bc751461042157806396bcf23614610438578063a2248be014610467578063ac25f26614610494578063b2b106d6146104d7578063b53c7245146104e1578063badca1311461050e578063ce5e419014610551578063d7d231551461057e578063dadd9e8e14610595578063e1f4a9b1146105e2578063f6b9571a1461060f575b61013b610652565b7f07269cceed46487a390abf33e24a29de2820b81614d292bcd2c554694f1ff6683334604051808373ffffffffffffffffffffffffffffffffffffffff1673ffffffffffffffffffffffffffffffffffffffff1681526020018281526020019250505060405180910390a1005b3480156101b457600080fd5b506101bd610b72565b6040518082815260200191505060405180910390f35b3480156101df57600080fd5b5061021e600480360381019080803573ffffffffffffffffffffffffffffffffffffffff16906020019092919080359060200190929190505050610bc4565b005b34801561022c57600080fd5b5061024b60048036038101908080359060200190929190505050610d21565b005b34801561025957600080fd5b50610262610dc5565b604051808215151515815260200191505060405180910390f35b34801561028857600080fd5b506102bd600480360381019080803573ffffffffffffffffffffffffffffffffffffffff169060200190929190505050610e0d565b005b3480156102cb57600080fd5b506102d4610f4a565b604051808273ffffffffffffffffffffffffffffffffffffffff1673ffffffffffffffffffffffffffffffffffffffff16815260200191505060405180910390f35b34801561032257600080fd5b5061034160048036038101908080359060200190929190505050610f70565b005b34801561034f57600080fd5b5061036e60048036038101908080359060200190929190505050611014565b005b34801561037c57600080fd5b506103856110b8565b005b34801561039357600080fd5b5061039c61115c565b604051808273ffffffffffffffffffffffffffffffffffffffff1673ffffffffffffffffffffffffffffffffffffffff16815260200191505060405180910390f35b3480156103ea57600080fd5b5061041f600480360381019080803573ffffffffffffffffffffffffffffffffffffffff169060200190929190505050611181565b005b34801561042d57600080fd5b506104366112bf565b005b34801561044457600080fd5b5061044d6114ed565b604051808215151515815260200191505060405180910390f35b34801561047357600080fd5b506104926004803603810190808035906020019092919050505061153f565b005b3480156104a057600080fd5b506104d5600480360381019080803573ffffffffffffffffffffffffffffffffffffffff1690602001909291905050506115e3565b005b6104df610652565b005b3480156104ed57600080fd5b5061050c60048036038101908080359060200190929190505050611720565b005b34801561051a57600080fd5b5061054f600480360381019080803573ffffffffffffffffffffffffffffffffffffffff1690602001909291905050506117c4565b005b34801561055d57600080fd5b5061057c60048036038101908080359060200190929190505050611896565b005b34801561058a57600080fd5b5061059361193a565b005b3480156105a157600080fd5b506105e0600480360381019080803573ffffffffffffffffffffffffffffffffffffffff169060200190929190803590602001909291905050506119aa565b005b3480156105ee57600080fd5b5061060d60048036038101908080359060200190929190505050611ab6565b005b34801561061b57600080fd5b50610650600480360381019080803573ffffffffffffffffffffffffffffffffffffffff169060200190929190505050611b5a565b005b6000806000806000806106636136c0565b60006106a6600160009054906101000a900473ffffffffffffffffffffffffffffffffffffffff1673ffffffffffffffffffffffffffffffffffffffff16611c98565b15156106b157600080fd5b60006106fe33600160009054906101000a900473ffffffffffffffffffffffffffffffffffffffff1673ffffffffffffffffffffffffffffffffffffffff16611d4090919063ffffffff16565b905060058160ff1610151561071257600080fd5b6107623360018301600160009054906101000a900473ffffffffffffffffffffffffffffffffffffffff1673ffffffffffffffffffffffffffffffffffffffff16611e209092919063ffffffff16565b6107ad33600160009054906101000a900473ffffffffffffffffffffffffffffffffffffffff1673ffffffffffffffffffffffffffffffffffffffff16611f5790919063ffffffff16565b98509850985098509850985060c0604051908101604052808a73ffffffffffffffffffffffffffffffffffffffff16815260200189815260200188815260200187815260200186151581526020018560ff168152509250610871670de0b6b3a7640000610863610854600160009054906101000a900473ffffffffffffffffffffffffffffffffffffffff1673ffffffffffffffffffffffffffffffffffffffff1661207e565b3461212690919063ffffffff16565b61216490919063ffffffff16565b9150826080015115610925576109226108c1600160009054906101000a900473ffffffffffffffffffffffffffffffffffffffff1673ffffffffffffffffffffffffffffffffffffffff1661218e565b610914610905600160009054906101000a900473ffffffffffffffffffffffffffffffffffffffff1673ffffffffffffffffffffffffffffffffffffffff16612236565b8561212690919063ffffffff16565b61216490919063ffffffff16565b91505b6109788261096a600160009054906101000a900473ffffffffffffffffffffffffffffffffffffffff1673ffffffffffffffffffffffffffffffffffffffff166122de565b61238690919063ffffffff16565b6109b9600160009054906101000a900473ffffffffffffffffffffffffffffffffffffffff1673ffffffffffffffffffffffffffffffffffffffff166123a7565b101515156109c657600080fd5b81610a08600160009054906101000a900473ffffffffffffffffffffffffffffffffffffffff1673ffffffffffffffffffffffffffffffffffffffff1661244f565b10151515610a1557600080fd5b81610a57600160009054906101000a900473ffffffffffffffffffffffffffffffffffffffff1673ffffffffffffffffffffffffffffffffffffffff166124f7565b11151515610a6457600080fd5b610aaf82600160009054906101000a900473ffffffffffffffffffffffffffffffffffffffff1673ffffffffffffffffffffffffffffffffffffffff1661259f90919063ffffffff16565b610afc3383600160009054906101000a900473ffffffffffffffffffffffffffffffffffffffff1673ffffffffffffffffffffffffffffffffffffffff166128519092919063ffffffff16565b7f080158bcec60f3dc9027ef99597d7280c562fe09366869ed88e94c46deea16bd3334604051808373ffffffffffffffffffffffffffffffffffffffff1673ffffffffffffffffffffffffffffffffffffffff1681526020018281526020019250505060405180910390a1505050505050505050565b6000610bbf33600160009054906101000a900473ffffffffffffffffffffffffffffffffffffffff1673ffffffffffffffffffffffffffffffffffffffff16612c1190919063ffffffff16565b905090565b610c0f33600160009054906101000a900473ffffffffffffffffffffffffffffffffffffffff1673ffffffffffffffffffffffffffffffffffffffff16612cf190919063ffffffff16565b1515610c1a57600080fd5b610c6581600160009054906101000a900473ffffffffffffffffffffffffffffffffffffffff1673ffffffffffffffffffffffffffffffffffffffff1661259f90919063ffffffff16565b610cb28282600160009054906101000a900473ffffffffffffffffffffffffffffffffffffffff1673ffffffffffffffffffffffffffffffffffffffff166128519092919063ffffffff16565b7f817c82540dfed5eca76fb4e857bbca44ad8d68a8c7769adba591e7cc58df9ceb8282604051808373ffffffffffffffffffffffffffffffffffffffff1673ffffffffffffffffffffffffffffffffffffffff1681526020018281526020019250505060405180910390a15050565b610d6c33600160009054906101000a900473ffffffffffffffffffffffffffffffffffffffff1673ffffffffffffffffffffffffffffffffffffffff16612cf190919063ffffffff16565b1515610d7757600080fd5b610dc281600160009054906101000a900473ffffffffffffffffffffffffffffffffffffffff1673ffffffffffffffffffffffffffffffffffffffff16612dd190919063ffffffff16565b50565b6000610e08600160009054906101000a900473ffffffffffffffffffffffffffffffffffffffff1673ffffffffffffffffffffffffffffffffffffffff16611c98565b905090565b610e5833600160009054906101000a900473ffffffffffffffffffffffffffffffffffffffff1673ffffffffffffffffffffffffffffffffffffffff16612cf190919063ffffffff16565b1515610e6357600080fd5b610eb08160018060009054906101000a900473ffffffffffffffffffffffffffffffffffffffff1673ffffffffffffffffffffffffffffffffffffffff16612e939092919063ffffffff16565b7f3f804ee3f07cdde086fb60b3b1407183bb984643f6369f5af570365f394ee8773382604051808373ffffffffffffffffffffffffffffffffffffffff1673ffffffffffffffffffffffffffffffffffffffff1681526020018273ffffffffffffffffffffffffffffffffffffffff1673ffffffffffffffffffffffffffffffffffffffff1681526020019250505060405180910390a150565b600160009054906101000a900473ffffffffffffffffffffffffffffffffffffffff1681565b610fbb33600160009054906101000a900473ffffffffffffffffffffffffffffffffffffffff1673ffffffffffffffffffffffffffffffffffffffff16612cf190919063ffffffff16565b1515610fc657600080fd5b61101181600160009054906101000a900473ffffffffffffffffffffffffffffffffffffffff1673ffffffffffffffffffffffffffffffffffffffff16612f5790919063ffffffff16565b50565b61105f33600160009054906101000a900473ffffffffffffffffffffffffffffffffffffffff1673ffffffffffffffffffffffffffffffffffffffff16612cf190919063ffffffff16565b151561106a57600080fd5b6110b581600160009054906101000a900473ffffffffffffffffffffffffffffffffffffffff1673ffffffffffffffffffffffffffffffffffffffff1661301990919063ffffffff16565b50565b61110333600160009054906101000a900473ffffffffffffffffffffffffffffffffffffffff1673ffffffffffffffffffffffffffffffffffffffff16612cf190919063ffffffff16565b151561110e57600080fd5b61115a6000600160009054906101000a900473ffffffffffffffffffffffffffffffffffffffff1673ffffffffffffffffffffffffffffffffffffffff166130db90919063ffffffff16565b565b6000809054906101000a900473ffffffffffffffffffffffffffffffffffffffff1681565b6111cc33600160009054906101000a900473ffffffffffffffffffffffffffffffffffffffff1673ffffffffffffffffffffffffffffffffffffffff16612cf190919063ffffffff16565b15156111d757600080fd5b611225816000600160009054906101000a900473ffffffffffffffffffffffffffffffffffffffff1673ffffffffffffffffffffffffffffffffffffffff166131a59092919063ffffffff16565b7f27a60e3602b98163fceb171f6f031ce264b8081fcc3ee4170a22e826e65d9aca3382604051808373ffffffffffffffffffffffffffffffffffffffff1673ffffffffffffffffffffffffffffffffffffffff1681526020018273ffffffffffffffffffffffffffffffffffffffff1673ffffffffffffffffffffffffffffffffffffffff1681526020019250505060405180910390a150565b61130a33600160009054906101000a900473ffffffffffffffffffffffffffffffffffffffff1673ffffffffffffffffffffffffffffffffffffffff16612cf190919063ffffffff16565b151561131557600080fd5b6000611358600160009054906101000a900473ffffffffffffffffffffffffffffffffffffffff1673ffffffffffffffffffffffffffffffffffffffff1661207e565b11151561136457600080fd5b60006113a7600160009054906101000a900473ffffffffffffffffffffffffffffffffffffffff1673ffffffffffffffffffffffffffffffffffffffff1661244f565b1115156113b357600080fd5b60006113f6600160009054906101000a900473ffffffffffffffffffffffffffffffffffffffff1673ffffffffffffffffffffffffffffffffffffffff166124f7565b11151561140257600080fd5b6000611445600160009054906101000a900473ffffffffffffffffffffffffffffffffffffffff1673ffffffffffffffffffffffffffffffffffffffff16612236565b11151561145157600080fd5b6000611494600160009054906101000a900473ffffffffffffffffffffffffffffffffffffffff1673ffffffffffffffffffffffffffffffffffffffff1661218e565b1115156114a057600080fd5b6114eb60018060009054906101000a900473ffffffffffffffffffffffffffffffffffffffff1673ffffffffffffffffffffffffffffffffffffffff166130db90919063ffffffff16565b565b600061153a33600160009054906101000a900473ffffffffffffffffffffffffffffffffffffffff1673ffffffffffffffffffffffffffffffffffffffff166132d890919063ffffffff16565b905090565b61158a33600160009054906101000a900473ffffffffffffffffffffffffffffffffffffffff1673ffffffffffffffffffffffffffffffffffffffff16612cf190919063ffffffff16565b151561159557600080fd5b6115e081600160009054906101000a900473ffffffffffffffffffffffffffffffffffffffff1673ffffffffffffffffffffffffffffffffffffffff166133b890919063ffffffff16565b50565b61162e33600160009054906101000a900473ffffffffffffffffffffffffffffffffffffffff1673ffffffffffffffffffffffffffffffffffffffff16612cf190919063ffffffff16565b151561163957600080fd5b6116868160018060009054906101000a900473ffffffffffffffffffffffffffffffffffffffff1673ffffffffffffffffffffffffffffffffffffffff166131a59092919063ffffffff16565b7fe11fbfa949b648e42d43f39485b1e95ac82384d5ec0905fc7f052d741acef44e3382604051808373ffffffffffffffffffffffffffffffffffffffff1673ffffffffffffffffffffffffffffffffffffffff1681526020018273ffffffffffffffffffffffffffffffffffffffff1673ffffffffffffffffffffffffffffffffffffffff1681526020019250505060405180910390a150565b61176b33600160009054906101000a900473ffffffffffffffffffffffffffffffffffffffff1673ffffffffffffffffffffffffffffffffffffffff16612cf190919063ffffffff16565b151561177657600080fd5b6117c181600160009054906101000a900473ffffffffffffffffffffffffffffffffffffffff1673ffffffffffffffffffffffffffffffffffffffff1661347a90919063ffffffff16565b50565b61180f33600160009054906101000a900473ffffffffffffffffffffffffffffffffffffffff1673ffffffffffffffffffffffffffffffffffffffff16612cf190919063ffffffff16565b151561181a57600080fd5b7fb4f624e48673dc663c4fb2404bafa6c05547bc096a7a103af31ae391e5b0903981604051808273ffffffffffffffffffffffffffffffffffffffff1673ffffffffffffffffffffffffffffffffffffffff16815260200191505060405180910390a18073ffffffffffffffffffffffffffffffffffffffff16ff5b6118e133600160009054906101000a900473ffffffffffffffffffffffffffffffffffffffff1673ffffffffffffffffffffffffffffffffffffffff16612cf190919063ffffffff16565b15156118ec57600080fd5b61193781600160009054906101000a900473ffffffffffffffffffffffffffffffffffffffff1673ffffffffffffffffffffffffffffffffffffffff1661353c90919063ffffffff16565b50565b6119a86000809054906101000a900473ffffffffffffffffffffffffffffffffffffffff1660018060009054906101000a900473ffffffffffffffffffffffffffffffffffffffff1673ffffffffffffffffffffffffffffffffffffffff16612e939092919063ffffffff16565b565b6119f533600160009054906101000a900473ffffffffffffffffffffffffffffffffffffffff1673ffffffffffffffffffffffffffffffffffffffff16612cf190919063ffffffff16565b1515611a0057600080fd5b8173ffffffffffffffffffffffffffffffffffffffff166108fc829081150290604051600060405180830381858888f19350505050158015611a46573d6000803e3d6000fd5b507f0f62c195e008cbdbf4ee7c79f1e25bc63567390e192e5ec8e9023f4de04cb24c8282604051808373ffffffffffffffffffffffffffffffffffffffff1673ffffffffffffffffffffffffffffffffffffffff1681526020018281526020019250505060405180910390a15050565b611b0133600160009054906101000a900473ffffffffffffffffffffffffffffffffffffffff1673ffffffffffffffffffffffffffffffffffffffff16612cf190919063ffffffff16565b1515611b0c57600080fd5b611b5781600160009054906101000a900473ffffffffffffffffffffffffffffffffffffffff1673ffffffffffffffffffffffffffffffffffffffff166135fe90919063ffffffff16565b50565b611ba533600160009054906101000a900473ffffffffffffffffffffffffffffffffffffffff1673ffffffffffffffffffffffffffffffffffffffff16612cf190919063ffffffff16565b1515611bb057600080fd5b611bfe816000600160009054906101000a900473ffffffffffffffffffffffffffffffffffffffff1673ffffffffffffffffffffffffffffffffffffffff16612e939092919063ffffffff16565b7fea01eb9a37e5d465b200f0b16e24bafb0db1a498973dbdc28c67ace2142bff7a3382604051808373ffffffffffffffffffffffffffffffffffffffff1673ffffffffffffffffffffffffffffffffffffffff1681526020018273ffffffffffffffffffffffffffffffffffffffff1673ffffffffffffffffffffffffffffffffffffffff1681526020019250505060405180910390a150565b60008173ffffffffffffffffffffffffffffffffffffffff166361c9559b6040518163ffffffff167c0100000000000000000000000000000000000000000000000000000000028152600401602060405180830381600087803b158015611cfe57600080fd5b505af1158015611d12573d6000803e3d6000fd5b505050506040513d6020811015611d2857600080fd5b81019080805190602001909291905050509050919050565b60008273ffffffffffffffffffffffffffffffffffffffff1663b08af3dd836040518263ffffffff167c0100000000000000000000000000000000000000000000000000000000028152600401808273ffffffffffffffffffffffffffffffffffffffff1673ffffffffffffffffffffffffffffffffffffffff168152602001915050602060405180830381600087803b158015611ddd57600080fd5b505af1158015611df1573d6000803e3d6000fd5b505050506040513d6020811015611e0757600080fd5b8101908080519060200190929190505050905092915050565b8273ffffffffffffffffffffffffffffffffffffffff1663b50f283283836040518363ffffffff167c0100000000000000000000000000000000000000000000000000000000028152600401808373ffffffffffffffffffffffffffffffffffffffff1673ffffffffffffffffffffffffffffffffffffffff1681526020018260ff1660ff16815260200192505050600060405180830381600087803b158015611ec957600080fd5b505af1158015611edd573d6000803e3d6000fd5b505050507f4a191ddc006770792ce2b50a4718ddddf0eaa843bcb368f1625f4f2890f8a5788282604051808373ffffffffffffffffffffffffffffffffffffffff1673ffffffffffffffffffffffffffffffffffffffff1681526020018260ff1660ff1681526020019250505060405180910390a1505050565b6000806000806000808773ffffffffffffffffffffffffffffffffffffffff1663b4a357a2886040518263ffffffff167c0100000000000000000000000000000000000000000000000000000000028152600401808273ffffffffffffffffffffffffffffffffffffffff1673ffffffffffffffffffffffffffffffffffffffff16815260200191505060c060405180830381600087803b158015611ffb57600080fd5b505af115801561200f573d6000803e3d6000fd5b505050506040513d60c081101561202557600080fd5b810190808051906020019092919080519060200190929190805190602001909291908051906020019092919080519060200190929190805190602001909291905050509550955095509550955095509295509295509295565b60008173ffffffffffffffffffffffffffffffffffffffff166371c1dde56040518163ffffffff167c0100000000000000000000000000000000000000000000000000000000028152600401602060405180830381600087803b1580156120e457600080fd5b505af11580156120f8573d6000803e3d6000fd5b505050506040513d602081101561210e57600080fd5b81019080805190602001909291905050509050919050565b600080600084141561213b576000915061215d565b828402905082848281151561214c57fe5b0414151561215957600080fd5b8091505b5092915050565b60008060008311151561217657600080fd5b828481151561218157fe5b0490508091505092915050565b60008173ffffffffffffffffffffffffffffffffffffffff1663037d4ff86040518163ffffffff167c0100000000000000000000000000000000000000000000000000000000028152600401602060405180830381600087803b1580156121f457600080fd5b505af1158015612208573d6000803e3d6000fd5b505050506040513d602081101561221e57600080fd5b81019080805190602001909291905050509050919050565b60008173ffffffffffffffffffffffffffffffffffffffff16635f4b125b6040518163ffffffff167c0100000000000000000000000000000000000000000000000000000000028152600401602060405180830381600087803b15801561229c57600080fd5b505af11580156122b0573d6000803e3d6000fd5b505050506040513d60208110156122c657600080fd5b81019080805190602001909291905050509050919050565b60008173ffffffffffffffffffffffffffffffffffffffff166373a29b5e6040518163ffffffff167c0100000000000000000000000000000000000000000000000000000000028152600401602060405180830381600087803b15801561234457600080fd5b505af1158015612358573d6000803e3d6000fd5b505050506040513d602081101561236e57600080fd5b81019080805190602001909291905050509050919050565b600080828401905083811015151561239d57600080fd5b8091505092915050565b60008173ffffffffffffffffffffffffffffffffffffffff1663037410406040518163ffffffff167c0100000000000000000000000000000000000000000000000000000000028152600401602060405180830381600087803b15801561240d57600080fd5b505af1158015612421573d6000803e3d6000fd5b505050506040513d602081101561243757600080fd5b81019080805190602001909291905050509050919050565b60008173ffffffffffffffffffffffffffffffffffffffff16635e3939736040518163ffffffff167c0100000000000000000000000000000000000000000000000000000000028152600401602060405180830381600087803b1580156124b557600080fd5b505af11580156124c9573d6000803e3d6000fd5b505050506040513d60208110156124df57600080fd5b81019080805190602001909291905050509050919050565b60008173ffffffffffffffffffffffffffffffffffffffff1663f105c9816040518163ffffffff167c0100000000000000000000000000000000000000000000000000000000028152600401602060405180830381600087803b15801561255d57600080fd5b505af1158015612571573d6000803e3d6000fd5b505050506040513d602081101561258757600080fd5b81019080805190602001909291905050509050919050565b6000818373ffffffffffffffffffffffffffffffffffffffff166373a29b5e6040518163ffffffff167c0100000000000000000000000000000000000000000000000000000000028152600401602060405180830381600087803b15801561260657600080fd5b505af115801561261a573d6000803e3d6000fd5b505050506040513d602081101561263057600080fd5b81019080805190602001909291905050500190508273ffffffffffffffffffffffffffffffffffffffff166373a29b5e6040518163ffffffff167c0100000000000000000000000000000000000000000000000000000000028152600401602060405180830381600087803b1580156126a857600080fd5b505af11580156126bc573d6000803e3d6000fd5b505050506040513d60208110156126d257600080fd5b810190808051906020019092919050505081101515156126ee57fe5b8273ffffffffffffffffffffffffffffffffffffffff1663084b8f8d838573ffffffffffffffffffffffffffffffffffffffff166373a29b5e6040518163ffffffff167c0100000000000000000000000000000000000000000000000000000000028152600401602060405180830381600087803b15801561276f57600080fd5b505af1158015612783573d6000803e3d6000fd5b505050506040513d602081101561279957600080fd5b8101908080519060200190929190505050016040518263ffffffff167c010000000000000000000000000000000000000000000000000000000002815260040180828152602001915050600060405180830381600087803b1580156127fd57600080fd5b505af1158015612811573d6000803e3d6000fd5b505050507ff16be055dcd8bd7b5d0f1e659a4014b4a2873a5206124e27f4af6201cc3ac5c6826040518082815260200191505060405180910390a1505050565b6000818473ffffffffffffffffffffffffffffffffffffffff1663083baf15856040518263ffffffff167c0100000000000000000000000000000000000000000000000000000000028152600401808273ffffffffffffffffffffffffffffffffffffffff1673ffffffffffffffffffffffffffffffffffffffff168152602001915050602060405180830381600087803b1580156128ef57600080fd5b505af1158015612903573d6000803e3d6000fd5b505050506040513d602081101561291957600080fd5b81019080805190602001909291905050500190508373ffffffffffffffffffffffffffffffffffffffff1663083baf15846040518263ffffffff167c0100000000000000000000000000000000000000000000000000000000028152600401808273ffffffffffffffffffffffffffffffffffffffff1673ffffffffffffffffffffffffffffffffffffffff168152602001915050602060405180830381600087803b1580156129c857600080fd5b505af11580156129dc573d6000803e3d6000fd5b505050506040513d60208110156129f257600080fd5b81019080805190602001909291905050508110151515612a0e57fe5b8373ffffffffffffffffffffffffffffffffffffffff16638e79dc9184848773ffffffffffffffffffffffffffffffffffffffff1663083baf15886040518263ffffffff167c0100000000000000000000000000000000000000000000000000000000028152600401808273ffffffffffffffffffffffffffffffffffffffff1673ffffffffffffffffffffffffffffffffffffffff168152602001915050602060405180830381600087803b158015612ac757600080fd5b505af1158015612adb573d6000803e3d6000fd5b505050506040513d6020811015612af157600080fd5b8101908080519060200190929190505050016040518363ffffffff167c0100000000000000000000000000000000000000000000000000000000028152600401808373ffffffffffffffffffffffffffffffffffffffff1673ffffffffffffffffffffffffffffffffffffffff16815260200182815260200192505050600060405180830381600087803b158015612b8857600080fd5b505af1158015612b9c573d6000803e3d6000fd5b505050507f65c9bb2fea93972ca955ef0d8fbe9911e1493f8b294ddd86564cc43d2863e1a88383604051808373ffffffffffffffffffffffffffffffffffffffff1673ffffffffffffffffffffffffffffffffffffffff1681526020018281526020019250505060405180910390a150505050565b60008273ffffffffffffffffffffffffffffffffffffffff1663083baf15836040518263ffffffff167c0100000000000000000000000000000000000000000000000000000000028152600401808273ffffffffffffffffffffffffffffffffffffffff1673ffffffffffffffffffffffffffffffffffffffff168152602001915050602060405180830381600087803b158015612cae57600080fd5b505af1158015612cc2573d6000803e3d6000fd5b505050506040513d6020811015612cd857600080fd5b8101908080519060200190929190505050905092915050565b60008273ffffffffffffffffffffffffffffffffffffffff1663f28e59c9836040518263ffffffff167c0100000000000000000000000000000000000000000000000000000000028152600401808273ffffffffffffffffffffffffffffffffffffffff1673ffffffffffffffffffffffffffffffffffffffff168152602001915050602060405180830381600087803b158015612d8e57600080fd5b505af1158015612da2573d6000803e3d6000fd5b505050506040513d6020811015612db857600080fd5b8101908080519060200190929190505050905092915050565b8173ffffffffffffffffffffffffffffffffffffffff16638d0522c5826040518263ffffffff167c010000000000000000000000000000000000000000000000000000000002815260040180828152602001915050600060405180830381600087803b158015612e4057600080fd5b505af1158015612e54573d6000803e3d6000fd5b505050507f78d64e458fafcc788d8ea68edd36e67d1fc96ef5fe5a38a6e650bc58cb95f954816040518082815260200191505060405180910390a15050565b8273ffffffffffffffffffffffffffffffffffffffff1663314ec2e583836040518363ffffffff167c0100000000000000000000000000000000000000000000000000000000028152600401808373ffffffffffffffffffffffffffffffffffffffff1673ffffffffffffffffffffffffffffffffffffffff1681526020018215151515815260200192505050600060405180830381600087803b158015612f3a57600080fd5b505af1158015612f4e573d6000803e3d6000fd5b50505050505050565b8173ffffffffffffffffffffffffffffffffffffffff166306bced7c826040518263ffffffff167c010000000000000000000000000000000000000000000000000000000002815260040180828152602001915050600060405180830381600087803b158015612fc657600080fd5b505af1158015612fda573d6000803e3d6000fd5b505050507fcb67400a53daa874324b7d612a0b6d8c1ef1577c8b4a56b99e9ad2259bc4ba9a816040518082815260200191505060405180910390a15050565b8173ffffffffffffffffffffffffffffffffffffffff1663084b8f8d826040518263ffffffff167c010000000000000000000000000000000000000000000000000000000002815260040180828152602001915050600060405180830381600087803b15801561308857600080fd5b505af115801561309c573d6000803e3d6000fd5b505050507fd448c0bf55467c7dd33f43eb5ff93c11b72bfcace5557abaa8fc2196493936de816040518082815260200191505060405180910390a15050565b8173ffffffffffffffffffffffffffffffffffffffff1663898ad5ec826040518263ffffffff167c01000000000000000000000000000000000000000000000000000000000281526004018082151515158152602001915050600060405180830381600087803b15801561314e57600080fd5b505af1158015613162573d6000803e3d6000fd5b505050507f015b47c1259db87085bc0ec54cc43fc82a24eff04679a34f3cfb75365ece56dd81604051808215151515815260200191505060405180910390a15050565b8273ffffffffffffffffffffffffffffffffffffffff1663ad549e5383836040518363ffffffff167c0100000000000000000000000000000000000000000000000000000000028152600401808373ffffffffffffffffffffffffffffffffffffffff1673ffffffffffffffffffffffffffffffffffffffff1681526020018215151515815260200192505050600060405180830381600087803b15801561324c57600080fd5b505af1158015613260573d6000803e3d6000fd5b505050507f9637d708ba05775eecc137b464ca9831a79601b0d140fa4c97fa07b0ed08c1a18282604051808373ffffffffffffffffffffffffffffffffffffffff1673ffffffffffffffffffffffffffffffffffffffff168152602001821515151581526020019250505060405180910390a1505050565b60008273ffffffffffffffffffffffffffffffffffffffff166310f5f1b3836040518263ffffffff167c0100000000000000000000000000000000000000000000000000000000028152600401808273ffffffffffffffffffffffffffffffffffffffff1673ffffffffffffffffffffffffffffffffffffffff168152602001915050602060405180830381600087803b15801561337557600080fd5b505af1158015613389573d6000803e3d6000fd5b505050506040513d602081101561339f57600080fd5b8101908080519060200190929190505050905092915050565b8173ffffffffffffffffffffffffffffffffffffffff1663a2248be0826040518263ffffffff167c010000000000000000000000000000000000000000000000000000000002815260040180828152602001915050600060405180830381600087803b15801561342757600080fd5b505af115801561343b573d6000803e3d6000fd5b505050507fbf3f8f78f5e120cd8f0881edabfd6b03659eb4711be90d7bf99910f2d1e7d5a5816040518082815260200191505060405180910390a15050565b8173ffffffffffffffffffffffffffffffffffffffff16634f8ffd1f826040518263ffffffff167c010000000000000000000000000000000000000000000000000000000002815260040180828152602001915050600060405180830381600087803b1580156134e957600080fd5b505af11580156134fd573d6000803e3d6000fd5b505050507f46050eb78844c255b27fedc04ac5a6ca57503e243adaa5fc2b0d1d5ab69f05c3816040518082815260200191505060405180910390a15050565b8173ffffffffffffffffffffffffffffffffffffffff1663431f188c826040518263ffffffff167c010000000000000000000000000000000000000000000000000000000002815260040180828152602001915050600060405180830381600087803b1580156135ab57600080fd5b505af11580156135bf573d6000803e3d6000fd5b505050507f60375cdd662ec42e99560b0e25be7358b8ab5636fce85ea1d8312b8178b3886d816040518082815260200191505060405180910390a15050565b8173ffffffffffffffffffffffffffffffffffffffff1663e1f4a9b1826040518263ffffffff167c010000000000000000000000000000000000000000000000000000000002815260040180828152602001915050600060405180830381600087803b15801561366d57600080fd5b505af1158015613681573d6000803e3d6000fd5b505050507fc34eec7e77c1e1e837e2d134ae65959c143dfeda4dcb6f4846061c21e1e1590e816040518082815260200191505060405180910390a15050565b60c060405190810160405280600073ffffffffffffffffffffffffffffffffffffffff168152602001600081526020016000815260200160008152602001600015158152602001600060ff16815250905600a165627a7a7230582062f078a0b0641f899068441bd9fb79ec5a44613d1ce03d9c57bdb791a513e8e50029",
  "source": "pragma solidity 0.4.24;\r\n\r\nimport \"./safe_math_lib.sol\";\r\nimport \"./topl_database_lib.sol\";\r\n\r\ncontract arbits_presale {\r\n\r\n    // libraries\r\n    using topl_database_lib for address;\r\n    using SafeMath for uint256;\r\n\r\n    // contract level vars\r\n    address public owner;\r\n    address public db;\r\n\r\n\r\n    // helpful data structs\r\n    struct participant {\r\n        address eth_address; // your eth address\r\n        uint256 topl_address; // your topl address\r\n        uint256 arbits; // the amount of a arbits you have\r\n        uint256 num_of_pro_rata_tokens_alloted;\r\n        bool arbits_kyc_whitelist; // if you pass arbits level kyc you get this\r\n        uint8 num_of_uses;\r\n    }\r\n\r\n    // permissions\r\n    constructor(address __db) public {\r\n        db = __db;\r\n        owner = msg.sender;\r\n    }\r\n\r\n    function owner_linkage() public { // must be called after the sale contract has been linked to the database contract via database's add master function\r\n        db.set_sale_owner(owner, true);\r\n    }\r\n\r\n    modifier only_owner() {\r\n        require(db.get_sale_owner(msg.sender));\r\n        _;\r\n    }\r\n\r\n    function add_owner(address __subject) public only_owner {\r\n        db.set_sale_owner(__subject, true);\r\n        emit e_add_owner(msg.sender, __subject);\r\n    }\r\n\r\n    function remove_owner(address __subject) public only_owner {\r\n        db.set_sale_owner(__subject, false);\r\n        emit e_remove_owner(msg.sender, __subject);\r\n    }\r\n\r\n    // general modifiers\r\n    modifier presale_open() {\r\n        require(db.get_arbits_presale_open());\r\n        _;\r\n    }\r\n\r\n    modifier use_count() {\r\n        uint8 uses = db.get_num_of_uses(msg.sender);\r\n        require(uses < 5);\r\n        db.set_num_of_uses(msg.sender, uses + 1);\r\n        _;\r\n    }\r\n\r\n    // functionality\r\n    function participate_in_arbits_presale_crypto() public payable presale_open use_count {\r\n        /////////////////////////////////////////////////////////////////////\r\n                                                                           //\r\n        (                                                                  //\r\n            address p1,                                                    //\r\n            uint256 p2,                                                    // LOAD\r\n            uint256 p3,                                                    // PARTICIPANT\r\n            uint256 p4,                                                    // DATA\r\n            bool p5,                                                       // FROM\r\n            uint8 p6                                                       // DATABASE\r\n        ) = db.get_participant(msg.sender);                                //\r\n        participant memory subject = participant(p1, p2, p3, p4, p5, p6);  //\r\n                                                                           //\r\n        /////////////////////////////////////////////////////////////////////\r\n\r\n        ////////////////////////////////////////////////////////////////////////////////////////////////////////////////////////////////////\r\n                                                                                                                                          //\r\n        uint256 subject_tokens_to_add = msg.value.mul(db.get_presale_arbits_per_ether()).div(1 ether);                                    //\r\n        if (subject.arbits_kyc_whitelist) {                                                                                               // Arbits\r\n            subject_tokens_to_add = subject_tokens_to_add.mul(db.get_pre_kyc_bonus_numerator()).div(db.get_pre_kyc_bonus_denominator());  // Purchased\r\n        }                                                                                                                                 // Calculation\r\n                                                                                                                                          //\r\n        ////////////////////////////////////////////////////////////////////////////////////////////////////////////////////////////////////\r\n\r\n        // Note: users must send ether in amounts that are evenly divide tokens_per_ether.\r\n        // Ex: If tokens_per_ether = 4 and a user sends .9 ether they will receive 3 tokens and forfeit .15 ether.\r\n        // The correct interaction would be to send some increment of .25 ether.\r\n\r\n        //////////////////////////////////////////////////////////////////////////////////////////////////////\r\n                                                                                                            //\r\n        require(db.get_presale_arbits_total() >= db.get_presale_arbits_sold().add(subject_tokens_to_add));  // Sale\r\n        require(db.get_arbits_max_contribution() >= subject_tokens_to_add); // max                          // Limit\r\n        require(db.get_arbits_min_contribution() <= subject_tokens_to_add); // min                          // Checks\r\n                                                                                                            //\r\n        //////////////////////////////////////////////////////////////////////////////////////////////////////\r\n\r\n        /////////////////////////////////////////////////////////////////////////////\r\n                                                                                   //\r\n        db.add_presale_arbits_sold(subject_tokens_to_add); // update sold counter  // Update\r\n        db.add_arbits(msg.sender, subject_tokens_to_add); // update arbits         // Database\r\n                                                                                   //\r\n        /////////////////////////////////////////////////////////////////////////////\r\n\r\n        ///////////////////////////////////////////////////////////////////////\r\n                                                                             //\r\n        emit e_participate_in_arbits_presale_crypto(msg.sender, msg.value);  // Event\r\n                                                                             //\r\n        ///////////////////////////////////////////////////////////////////////\r\n    }\r\n\r\n    function participate_in_arbits_presale_fiat(address _a, uint256 _t) public only_owner {\r\n        //////////////////////////////////////////////////////////\r\n                                                                //\r\n        db.add_presale_arbits_sold(_t); // update sold counter  // Update\r\n        db.add_arbits(_a, _t); // update arbits                 // Database\r\n                                                                //\r\n        //////////////////////////////////////////////////////////\r\n\r\n        //////////////////////////////////////////////////////\r\n                                                            //\r\n        emit e_participate_in_arbits_presale_fiat(_a, _t);  // Event\r\n                                                            //\r\n        //////////////////////////////////////////////////////\r\n    }\r\n\r\n    function() public payable {\r\n        participate_in_arbits_presale_crypto(); // allows users to participate without an explicit function call\r\n        emit e_fallback(msg.sender, msg.value);\r\n    }\r\n\r\n    // owner withdrawals\r\n    function kill_and_withdraw(address withdraw_to) public only_owner {\r\n        emit e_kill_and_withdraw(withdraw_to);\r\n        selfdestruct(withdraw_to);\r\n    }\r\n\r\n    function withdraw_some_amount(address withdraw_to, uint256 amount) public only_owner {\r\n        withdraw_to.transfer(amount); // amount in wei, throws if error\r\n        emit e_withdraw_some_amount(withdraw_to, amount);\r\n    }\r\n\r\n    // arbit specific sale settings\r\n    function set_sale_open() public only_owner {\r\n        require(db.get_presale_arbits_per_ether() > 0);\r\n        require(db.get_arbits_max_contribution() > 0);\r\n        require(db.get_arbits_min_contribution() > 0);\r\n        require(db.get_pre_kyc_bonus_numerator() > 0);\r\n        require(db.get_pre_kyc_bonus_denominator() > 0);\r\n        db.set_arbits_presale_open(true);\r\n    }\r\n\r\n    function set_sale_closed() public only_owner {\r\n        db.set_arbits_presale_open(false);\r\n    }\r\n\r\n    function set_tokens_per_ether(uint256 _v) public only_owner {\r\n        db.set_presale_arbits_per_ether(_v);\r\n    }\r\n\r\n    function set_pre_kyc_bonus_numerator(uint256 _v) public only_owner {\r\n        db.set_pre_kyc_bonus_numerator(_v);\r\n    }\r\n\r\n    function set_pre_kyc_bonus_denominator(uint256 _v) public only_owner {\r\n        db.set_pre_kyc_bonus_denominator(_v);\r\n    }\r\n\r\n    //// This section provides external functionality for modifying the database \r\n    // whitelist\r\n    function add_to_whitelist(address _a) public only_owner {\r\n        db.set_arbits_whitelist(_a, true);\r\n        emit e_add_to_whitelist(msg.sender, _a);\r\n    }\r\n\r\n    function remove_from_whitelist(address _a) public only_owner {\r\n        db.set_arbits_whitelist(_a, false);\r\n        emit e_remove_from_whitelist(msg.sender, _a);\r\n    }\r\n\r\n    // general sale settings\r\n    function set_max_contribution(uint256 _v) public only_owner {\r\n        db.set_arbits_max_contribution(_v);\r\n    }\r\n\r\n    function set_min_contribution(uint256 _v) public only_owner {\r\n        db.set_arbits_min_contribution(_v);\r\n    }\r\n\r\n    function set_tokens_total(uint256 _v) public only_owner {\r\n        db.set_presale_arbits_total(_v);\r\n    }\r\n\r\n    function set_tokens_sold(uint256 _v) public only_owner {\r\n        db.set_presale_arbits_sold(_v);\r\n    }\r\n\r\n    // helpers\r\n    function is_presale_open() public view returns(bool) {\r\n        return db.get_arbits_presale_open();\r\n    }\r\n\r\n    function am_i_on_the_whitelist() public view returns(bool) {\r\n        return db.get_arbits_whitelist(msg.sender);\r\n    }\r\n\r\n    function how_many_arbits_do_i_have() public view returns(uint256) {\r\n        return db.get_arbits(msg.sender);\r\n    }\r\n\r\n    // events\r\n    //\r\n    // All storage calls are logged via events emitted in the library functions.\r\n    // Because web3 bugs out when when libraries call events that aren't defined in\r\n    // the parent contract. We redefine them here.\r\n    //\r\n    // contract level events\r\n    event e_add_owner(address addres1, address address2); // adder, addie <-------- These are words now!\r\n    event e_remove_owner(address addres1, address address2); // remover, removie <_/\r\n    event e_add_to_whitelist(address, address); // adder, addie\r\n    event e_remove_from_whitelist(address, address); // remover, removie\r\n    event e_participate_in_arbits_presale_fiat(address, uint256); // person getting arbits, number of arbits\r\n    event e_participate_in_arbits_presale_crypto(address, uint256); // msg.sender, msg.value\r\n    event e_fallback(address, uint256); // msg.sender, msg.value (used to gather data on what %\r\n    // of people just send ether vs sending a function call\r\n    event e_kill_and_withdraw(address); // person that just took all our money\r\n    event e_withdraw_some_amount(address, uint256); // withdrawal address, amount withdrawn\r\n}\r\n",
  "sourcePath": "C:\\git\\Midgard\\contracts\\arbits_presale.sol",
  "compiler": {
    "name": "solc",
    "version": "0.4.24+commit.e67f0147.Emscripten.clang"
  },
  "schemaVersion": "2.0.1",
  "updatedAt": "2018-09-27T08:10:05.085Z"
}